:020000040800F2
:1000000060100020450100084D0100084F01000864
:1000100051010008530100085501000800000000CC
:100020000000000000000000000000005701000870
:1000300059010008000000005B0100089917000842
:100040005F0100085F0100085F0100085F01000810
:100050005F0100085F0100085F0100085F01000800
:10006000750600085F0100085F0100085F010008D5
:100070005F0100085F0100085F0100085F010008E0
:100080005F0100085F0100085F0100085F010008D0
:100090005F0100085F0100085F0100085F010008C0
:1000A0005F0100085F0100085F0100085F010008B0
:1000B0008D1800085F0100085F0100085F0100085B
:1000C0005F0100085F0100085F0100085F01000890
:1000D0005F010008611E00085F0100085F01000861
:1000E0005F0100085F0100085F0100085F01000870
:1000F0005F0100085F0100085F0100085F01000860
:100100005F0100085F0100085F0100085F0100084F
:100110005F0100085F0100085F0100085F0100083F
:100120005F0100085F0100085F0100085F0100082F
:10013000DFF80CD000F060F900480047A124000867
:10014000601000200648804706480047FEE7FEE7AB
:10015000FEE7FEE7FEE7FEE7FEE7FEE7FEE7FEE777
:100160002D180008310100082DE9FE4F81EA030433
:1001700004F0004421F0004100944FF0000B23F004
:10018000004350EA01045ED052EA03045BD0C3F39B
:100190000A54C1F30A552C44A4F2F3340194A0FB91
:1001A0000254C1F3130141F48011C3F3130343F468
:1001B000801301FB024400FB034E840A970A44EAC1
:1001C000815447EA8357A4FB076802958D0A05FB13
:1001D00007854FEA932C04FB0C542705029D4FEA38
:1001E000065847EA1637B5EB08056EEB070C870E85
:1001F000920E47EA811742EA8312A7FB0201B6EB8F
:100200000B0164EB00042B0D43EA0C335E1844EB46
:100210001C50DA465146E7FB0201C5F313044FEACE
:100220000B3343EA14534FEA0432019C43EA0603BA
:10023000A4F10C040294009CCDE900B400F08DF808
:1002400003B0BDE8F08F00200146F9E796230022B5
:10025000114600F045B8C1F30A5210B5C1F31301BD
:1002600040F2FF3341F480119A4201DA002010BDC0
:1002700040F233439A42A2F2334203DC524200F08E
:1002800016F810BD904010BD00F0004230F0004064
:100290000AD0C10D01F56071C0F3160042EA0151A8
:1002A000C208400711437047002001467047202ACA
:1002B00004DB203A21FA02F00021704721FA02F310
:1002C000D040C2F1200291400843194670470029EE
:1002D000A8BF7047401C490008BF20F001007047CC
:1002E00010B4B0FA80FC00FA0CF050EA010404BF2C
:1002F00010BC704749B1CCF1200421FA04F411FA82
:100300000CF118BF012121430843A3EB0C01CB1DC5
:100310004FEA00614FEA102042BF002010BC704736
:1003200000EBC35010440029A4BF10BC7047401C10
:10033000490008BF20F0010010BC704710B5141E22
:1003400073F1000408DA401C41F1000192185B418E
:100350001A4301D120F0010010BD2DE9F04D924665
:100360009B4611B1B1FA81F202E0B0FA80F220327C
:10037000904600F053F804460F4640EA0A0041EA6E
:100380000B0153465A46084313D0114653EA010065
:1003900019D0C8F140025046FFF789FF05460E46C6
:1003A00050465946424600F039F8084305D001202E
:1003B00004E020463946BDE8F08D0020054346EABA
:1003C000E0762C4337430A986305E40AA0EB080063
:1003D0000022FD0A44EA47540A3002D500200146B3
:1003E000E9E7010510196941DDE90845001969418E
:1003F000BDE8F04DA2E70000064C074D06E0E068BE
:1004000040F0010394E8070098471034AC42F6D35B
:10041000FFF792FE0C2800082C280008202A04DB95
:10042000203A00FA02F1002070479140C2F1200307
:1004300020FA03F319439040704710B58F2000F065
:10044000BDFA0446204610BD70B5962000F0B6FAFD
:100450000446972000F0B2FA054645EA04263046E5
:1004600070BD70B5942000F0A9FA0446952000F004
:10047000A5FA054645EA0426304670BD38B504465F
:100480002046FFF7E3FE0546694600F07DF99DF83A
:100490000010852000F016FB9DF80110862000F06A
:1004A00011FB9DF80210872000F00CFB38BD38B519
:1004B0000446200A8DF80000E0B28DF801009DF896
:1004C0000010882000F0FEFA9DF80110892000F04D
:1004D000F9FA38BD38B504462046FFF7B7FE0546A1
:1004E000694600F051F99DF80010822000F0EAFA08
:1004F0009DF80110832000F0E5FA9DF80210842099
:1005000000F0E0FA38BD00002DE9F04104460D4648
:1005100016461F46DDF8188044EA0500304338438C
:1005200040EA08000749086008460088C0F3072130
:10053000802000F0C7FA03480178812000F0C2FA59
:10054000BDE8F0815C00002010B508480088C0F3C9
:100550000B0040F480400549086008460088C0F35D
:100560000721802000F0AEFA10BD00005C000020E2
:1005700010B508480088C0F30B0040F4005005494E
:10058000086008460088C0F30721802000F09AFA2E
:1005900010BD00005C00002010B508480088C0F3C2
:1005A0000B0040F440500549086008460088C0F33D
:1005B0000721802000F086FA10BD00005C000020BA
:1005C00010B5074800684FF6EF71084040F0100082
:1005D0000349086008460178812000F073FA10BDD5
:1005E0005C00002010B508480088C0F30B0040F400
:1005F00030400549086008460088C0F30721802084
:1006000000F060FA10BD00005C00002010B5084842
:100610000088C0F30B0040F480500549086008468C
:100620000088C0F30721802000F04CFA10BD0000C4
:100630005C0000202DE9F04105460E4617464FF4B8
:1006400080510B4800F088F945F0800000F02EFF43
:10065000002404E0305D00F029FF601CC4B2BC42FD
:10066000F8DB4FF48051024800F078F9BDE8F081E2
:10067000000C014010B5042000F028F828B1042037
:1006800000F006F801200149087010BD00000020AC
:100690000149086070470000140401401CB50221A4
:1006A000002000F0A5F80420FFF7F2FF00208DF8ED
:1006B000040008208DF805000420009001208DF82A
:1006C0000600684600F016F81CBD00000146002038
:1006D0000022074B1B6803EA0102054B14331B6819
:1006E0000B4013B10AB1012000E000207047000068
:1006F00000040140002123498279002A3AD00A46A9
:10070000126803689A430B461A600A1D1268036850
:100710009A430B1D1A60027911440A6803681A4350
:100720000A60184A0832126803689A43154B083366
:100730001A601A1D126803689A43124B0C331A6030
:100740004279102A0ED11A1F126803681A430D4B02
:1007500008331A601A1D126803681A43094B0C33D8
:100760001A600DE00749427911440A6803681A4388
:100770000A6005E0027911440A6803689A430A6036
:1007800070470000000401402DE9F04782460C4606
:100790005046FFF779FD0746084A094BFFF7E4FC8E
:1007A0000546FFF758FD81464FEA194020704FEA91
:1007B0001920607084F80290BDE8F087B3066901E3
:1007C0004C00404008B50121042000F093FB0420B8
:1007D000ADF8000003208DF8020004208DF803001E
:1007E0006946024800F024F808BD000000080140F6
:1007F00030B500228B071C0F0F2303FA04F20B4BBA
:100800008C1053F824309343084C8D1044F8253055
:1008100023468C1053F824308C07240F00FA04F47C
:100820002343024C8D1044F8253030BD08000140B0
:100830002DE9F04102460025002600200023002477
:10084000002791F803C00CF00F0591F803C00CF0DD
:10085000100CBCF1000F03D091F802C04CEA050562
:1008600091F800C0BCF1000F31D0146800202BE0DB
:100870004FF0010C0CFA00F3B1F800C00CEA0306CB
:100880009E4220D183004FF00F0C0CFA03F7BC43BB
:1008900005FA03FC4CEA040491F803C0BCF1280FEC
:1008A00006D14FF0010C0CFA00FCC2F814C00AE0AB
:1008B00091F803C0BCF1480F05D14FF0010C0CFAC0
:1008C00000FCC2F810C0401C0828D1D31460B1F855
:1008D00000C0BCF1FF0F34DD546800202EE000F1B1
:1008E000080C4FF0010808FA0CF3B1F800C00CEA4C
:1008F00003069E4221D183004FF00F0C0CFA03F740
:10090000BC4305FA03FC4CEA040491F803C0BCF1B3
:10091000280F05D100F1080C08FA0CF8C2F8148071
:1009200091F803C0BCF1480F07D100F1080C4FF05B
:10093000010808FA0CF8C2F81080401C0828CED331
:100940005460BDE8F0810246002093680B400BB173
:10095000012000E00020704741617047016170474D
:1009600021B1028842F48062028004E002884FF6DE
:10097000FF331A400280704770B5024600240025FC
:1009800000230020958A138B1B0445EA030626F0FA
:100990007F4404EA01068E4201D1012000E00020DC
:1009A00070BD21B1028842F00102028004E0028899
:1009B0004FF6FE731A4002807047000070B504467F
:1009C000002500BF4FF400313A4800F005F9002837
:1009D000F8D10121374800F0E7F800BF3649354823
:1009E000FFF7CAFF0028F9D03448017800223148C7
:1009F00000F0ACF900BF32492E48FFF7BDFF0028D8
:100A0000F9D001212B48FFF7CCFFB021294800F095
:100A1000A6F900BF2A49891C2648FFF7ADFF002828
:100A2000F8D02146234800F09AF900BF2449891CD8
:100A30002048FFF7A1FF0028F8D001211D4800F051
:100A4000BFF801211B4800F0AFF800BF1A49194850
:100A5000FFF792FF0028F9D01848017801221548C5
:100A600000F074F900BF1449491C1248FFF784FFD5
:100A70000028F8D001210F48FFF772FF12E00E495D
:100A80003F310C48FFF778FF60B10A4800F05AF98F
:100A9000054600210748FFF763FF0121054800F0E4
:100AA0008FF800E0EBE700BF01210248FFF758FF95
:100AB000284670BD0054004001000300740000206F
:100AC0008200070070B504460D460121194800F068
:100AD0006BF800BF18491748FFF74EFF0028F9D000
:100AE000164801780022134800F030F900BF14497D
:100AF0001048FFF741FF0028F9D021460D4800F0CB
:100B00002EF900BF0E49891C0A48FFF735FF00285F
:100B1000F8D02946074800F022F900BF0849891C8F
:100B20000448FFF729FF0028F8D00121014800F010
:100B300047F870BD0054004001000300740000201D
:100B40008200070010B500F009F800F0D9F81A206B
:100B50000149088010BD00007400002008B5012183
:100B6000480500F0A7F90121082000F0C3F9402052
:100B7000ADF8000003208DF802001C208DF8030062
:100B800069460848FFF754FE8020ADF800000320B6
:100B90008DF802001C208DF8030069460148FFF71C
:100BA00047FE08BD000C014021B1028842F480726A
:100BB000028004E002884FF6FF631A40028070470B
:100BC00021B1028842F40072028004E002884FF6EC
:100BD000FF531A40028070470CB5024600200023E4
:100BE0000193009300920B0F019321F07F41019B31
:100BF0001BB1009B1433009303E0090C009B1833D6
:100C00000093009B1B680B400BB1012000E000200B
:100C10000CBD00002DE9F04385B004460D460026CA
:100C2000B1460427DFF8CC80A6884FF6C070064096
:100C3000684600F07FF9DDF808802F48B8FBF0F037
:100C40001FFA80F946EA0906A68020884FF6FE7151
:100C50000840208000262949286888420CD8286846
:100C60004000B8FBF0F087B2042F00DA04273E43BF
:100C700009F10100208427E0E8884BF6FF718842E3
:100C800006D1286800EB4000B8FBF0F087B209E01D
:100C9000286800EBC00101EB0010B8FBF0F087B250
:100CA00047F48047C7F30B0008B947F0010747F442
:100CB000004006434FF4967009FB00F04FF47A7140
:100CC00090FBF1F0401C2084A683208840F00100B6
:100CD000208026884FF6F5300640A88869890843A9
:100CE00006432680A88929890843208105B0BDE8EC
:100CF000F083000000127A0040420F00A08601003D
:100D00001FB50020ADF804004BF6FF70ADF80600EB
:100D10007C20ADF808004FF48060ADF80A000001B7
:100D2000ADF80C000548009069460548FFF772FFD2
:100D300001210348FFF735FE1FBD0000801A0600A1
:100D4000005400400146088AC0B2704712B141F019
:100D5000010102E04FF6FE731940018270470182E3
:100D600070471FB5002003464FF480720146009083
:100D70004FF43040FFF7C8FBFFF722FCFFF746FCBB
:100D8000002003900EE00020029004E0002001907B
:100D90000298401C02900298B0F57A7FF6DB039827
:100DA000401C03900398B0F57A7FECDB1FBD000078
:100DB00008B50121042000F09DF80120ADF80000E5
:100DC00010208DF8030003208DF8020069460F48BB
:100DD000FFF72EFD0120ADF8000069460B48FFF734
:100DE00027FD0120ADF8000069460848FFF720FD07
:100DF00001210648FFF7B2FD01210448FFF7AEFDCF
:100E000001210248FFF7AAFD08BD000000080140CB
:100E100008B508208DF8000000208DF801008DF83D
:100E2000020001208DF80300684600F001F808BDBB
:100E300070B5002100230F22C47804B3154C246838
:100E400004F4E064C4F5E064210AC1F10403CA407B
:100E5000447804FA03F184781440214309010E4CCC
:100E60000678A155047804F01F050124AC400578EC
:100E70006D11AD0005F1E025C5F8004109E00478E9
:100E800004F01F050124AC40044D0678761145F8A6
:100E9000264070BD0CED00E000E400E080E100E0E1
:100EA00002490143024A1160704700000000FA0540
:100EB0000CED00E029B1064AD2690243044BDA6125
:100EC00004E0034AD2698243014BDA6170470000B3
:100ED0000010024029B1064A12690243044B1A610C
:100EE00004E0034A12698243014B1A617047000013
:100EF0000010024029B1064A92690243044B9A61EC
:100F000004E0034A92698243014B9A6170470000F2
:100F10000010024029B1064AD2680243044BDA604D
:100F200004E0034AD2688243014BDA607047000054
:100F30000010024030B500210022002400232D4D76
:100F40006D6805F00C0121B1042905D0082923D1D1
:100F500005E0294D056022E0274D05601FE0254D85
:100F60006D6805F47012234D6D6805F48034022518
:100F700005EB92421CB9214D554305600BE01D4D18
:100F80006D6805F400351DB11C4D5543056002E048
:100F9000194D5543056002E0174D056000BF00BFC5
:100FA000144D6D6805F0F0010909154D6B5C05687D
:100FB000DD4045600F4D6D6805F4E061090A104D94
:100FC0006B5C4568DD4085600A4D6D6805F46051D5
:100FD000C90A0B4D6B5C4568DD40C560054D6D6809
:100FE00005F44041890B074D6B5CC568B5FBF3F513
:100FF000056130BD0010024000127A0000093D007A
:10100000860000209600002008B501210420FFF78B
:1010100071FF01210820FFF76DFF4FF48070ADF8DC
:10102000000003208DF8020010208DF803006946AF
:101030000D48FFF7FDFB4FF48050ADF80000032092
:101040008DF8020010208DF8030069460748FFF76D
:10105000EFFB0420ADF800008DF80300694602485C
:10106000FFF7E6FB08BD000000080140000C01404E
:1010700010B500F0B1F900F0ABF810BD70B5064640
:101080004FF480714748FFF767FC642404E00A20AE
:1010900001F09EF8601EC4B2002CF8D14FF48071AC
:1010A0004048FFF75BFCFA2404E00A2001F090F8C6
:1010B000601EC4B2002CF8D100F056F9FA2404E006
:1010C000012001F085F8601EC4B2002CF8D100F0B8
:1010D00073F8422000F006FA054600BF06E03249E8
:1010E00031F8140000F01CFA601CC4B2032CF6DBCB
:1010F0002E49088800F014FA40F60B3000F010FA80
:1011000040F6234000F00CFA29484078062823D105
:101110002849097A4FF4E85202EB011101F1090064
:1011200000F0FEF9224949784FF4F05202EB011128
:10113000C81C00F0F5F9312000F0D4F9054605F09F
:10114000F80545F0050505F5445000F0E9F943F2CE
:101150000C7000F0E5F912E01649097A4FF4E852F4
:1011600002EB011101F1080000F0DAF910494978A9
:101170004FF4F05202EB0111C81C00F0D1F941F616
:10118000FF7000F0CDF94FF4005000F0C9F942F2C1
:101190000C1000F0C5F944F2011000F0C1F900F0A4
:1011A000E9F870BD00080140D8270008DE270008D4
:1011B000E6270008EC27000810B54FF4C47000F0D3
:1011C000AFF910BD10B541F2FF2000F0A9F910BD34
:1011D00010B50020FFF752FF44F6845000F0A0F94C
:1011E00042F2FF4000F09CF944F2010000F098F94F
:1011F00041F23F1000F094F9FFF7E4FF42F21520AE
:1012000000F08EF90F2000F06DF9044604F55060EF
:1012100000F086F940F20D1000F082F910BD2DE9C2
:10122000F041044600270020FFF728FF4FF47A70B2
:1012300000F0CEFF44F6875000F072F94FF41050E2
:1012400000F06EF944F2410000F06AF9FFF7BAFFCE
:1012500041F2F71000F064F904F5085000F060F96D
:101260000E2000F03FF9064606F5506000F058F9F0
:101270000BE0222000F036F90546A54200D105E03A
:10128000032F02DB0020BDE8F081F2E700BF20461B
:10129000F9E700002DE9F0410546002603E00020B3
:1012A000A855701CC6B2202EF9DB102000F01AF9E8
:1012B000074607F5506000F033F9012000F088FF81
:1012C0000F484078062801D1152403E0132000F0D0
:1012D00009F90446012C04D1002000F003F928701C
:1012E00006E00848047022462946002000F0B8F8BD
:1012F000FFF768FF012000F06BFF2046BDE8F0819A
:10130000E62700086000002070B505460C46002660
:10131000224629460020FFF78DF940F20B1000F01D
:10132000FFF809E0701C80B20646B0F57A7F00DD58
:1013300008E0012000F02CFF04210A48FFF703FB1E
:101340000028EFD000BF122000F0CCF8FFF73AFFE2
:1013500000F010F8B6F57A7F01DD002070BD204660
:10136000FCE700000008014010B54FF4847000F065
:10137000D7F810BD10B540F2091000F0D1F810BD3B
:1013800010B5002404210648FFF7DDFA28B105480E
:10139000FFF780FF044600F007F8204610BD00006C
:1013A000000801402801002010B5FFF711FF10BD13
:1013B00070B506460C4600252046FFF730FF05466F
:1013C00021463046FFF7A0FF0546052000F0E0FE6D
:1013D000FFF7EAFF284670BD00B587B01E4800F051
:1013E000C3F801210820FFF785FD01218803FFF7DD
:1013F00061FD4FF46040ADF8040018208DF807003F
:1014000003208DF8060001A91448FFF711FA002007
:10141000ADF808004FF48270ADF80A000020ADF876
:101420000C00ADF80E00ADF810004FF40070ADF8F0
:1014300012003820ADF814000020ADF81600072087
:10144000ADF8180002A9044800F0C8F801210248CC
:1014500000F07EF807B000BD00380040000C0140ED
:101460002DE9F04106460F461546012D01DCBDE889
:10147000F0814FF480510C48FFF76EFA06F07F00C0
:1014800000F014F8002405E0FF2000F00FF83855B4
:10149000601CC4B2AC42F7DB4FF480510248FFF746
:1014A0005DFA00BFE3E70000000C014010B5044600
:1014B00000BF02210A4800F083F80028F9D0214635
:1014C000074800F089F800BF0121054800F078F8CE
:1014D0000028F9D0024800F07CF8C0B210BD00002E
:1014E0000038004070B504464FF480510848FFF7BB
:1014F00033FA04F07F00FFF7D9FF00F00BF8054640
:101500004FF480510248FFF729FA284670BD0000C9
:10151000000C014010B5FF20FFF7C8FF10BD000010
:1015200010B5044644F400444FF480510748FFF7D7
:1015300013FA2012FFF7BAFFE0B2FFF7B7FF4FF43C
:1015400080510248FFF70AFA10BD0000000C01406C
:1015500021B1028842F04002028004E002884FF686
:10156000BF731A400280704710B504461148844288
:1015700008D101218014FFF7CDFC0021A014FFF752
:10158000C9FC16E00C48844208D101210014FFF781
:10159000A1FC00212014FFF79DFC0AE007488442CB
:1015A00007D10121C013FFF795FC0021E013FFF7DD
:1015B00091FC10BD0030014000380040003C00406C
:1015C0000246002013890B400BB1012000E00020EF
:1015D00070470146888970478181704710B50022A5
:1015E000028802F441520B884C8823438C882343A1
:1015F000CC8823430C8923434C8923438C89234380
:10160000CC8923431A430280838B4FF2FF7423401B
:1016100083830B8A038210BD10B500F001F810BD62
:101620000CB50020019000903348006840F48030F1
:101630003149086000BF3048006800F40030009075
:101640000198401C0190009818B90198B0F5A06F5E
:10165000F1D12948006800F4003010B10120009059
:1016600001E0002000900098012843D12348006841
:1016700040F01000214908600846006820F003008F
:1016800008600846006840F0020008601A48406898
:10169000194948600846406848600846406840F478
:1016A000806048600846406820F47C104860084626
:1016B000406840F4E81048600846006840F08070D8
:1016C000086000BF0C48006800F000700028F9D0E6
:1016D0000948406820F00300074948600846406810
:1016E00040F00200486000BF0348406800F00C0072
:1016F0000828F9D10CBD0000001002400020024073
:1017000070B5002016E0002100EB40021E4B03EBF9
:101710008202516000EB400203EB8202916000EB19
:10172000400203EB8202517000EB400203F82210EA
:10173000411CC8B20428E6DB144909684FF47A73E7
:10174000B1FBF3F2511EB1F1807F00D31BE0511EBB
:101750004FF0E023596159170F23002904DB1C07C0
:10176000250E0B4C655406E01C07260E094C01F0B3
:101770000F052D1F665500BF00214FF0E023996132
:101780000721196100BF70BD300C00209C000020B3
:1017900000E400E018ED00E010B500F001F810BD25
:1017A00010B51C48006840B11A480068401E19492D
:1017B000086010B9012018490870002408E004EB03
:1017C0004401164A02EB810000F09BFD601CC4B28C
:1017D000042CF4DB12480068401C114908600846DC
:1017E00000686FF00041884202D100200C49086077
:1017F00000F086FD0B480078401CC0B20949087013
:101800000A2803DB0020087000F066FD064800F09F
:1018100013F910BD780000207C000020300C00205F
:1018200080000020840000202400002010B5134810
:10183000006840F0010011490860084640681049FE
:1018400008400E494860084600680E4908400B49A8
:1018500008600846006820F4802008600846406858
:1018600020F4FE0048604FF41F008860FFF7D4FEAC
:101870004FF000600449086010BD000000100240F5
:101880000000FFF8FFFFF6FE08ED00E010B50221B2
:10189000480700F05BF858B10221480700F044F80F
:1018A00000220221480700F062F81B4800688047C8
:1018B0000421080700F04AF858B10421080700F095
:1018C00033F800220421080700F051F8134800689B
:1018D00080470821C80600F039F858B10821C80629
:1018E00000F022F800220821C80600F040F80C4859
:1018F000006880471021880600F028F858B11021B0
:10190000880600F011F800221021880600F02FF858
:1019100004480068804710BD640000206800002073
:101920006C00002070000020CA430282704721B181
:10193000028842F00102028004E002884FF6FE7342
:101940001A40028070470146888C704730B50246C5
:10195000002000230024158A05EA0103958905EA81
:10196000010413B10CB1012000E0002030BD1AB118
:1019700083890B43838102E083898B438381704792
:10198000818670470187704781877047A0F84010B3
:1019900070470000002202881D4B98420ED01D4B5C
:1019A00098420BD0B0F1804F08D01B4B984205D025
:1019B0001A4B984202D01A4B984204D14FF68F73BB
:1019C0001A404B881A43174B984207D0164B98423F
:1019D00004D04FF6FF431A40CB881A4302808B880D
:1019E00083850B8803850A4B98420BD0094B98429C
:1019F00008D00E4B984205D00D4B984202D00D4BAB
:101A0000984201D10B7A038601238382704700003C
:101A1000002C014000340140000400400008004058
:101A2000000C004000100040001400400040014045
:101A300000440140004801400146002033E000EB33
:101A4000400211F8222062BB00EB400201EB82024F
:101A50005288002A25DD00EB400201EB8202528809
:101A6000521E00EB400301EB83035A8000EB40025F
:101A700001EB82025288A2B900EB400211F8222049
:101A80004AB900EB400201EB8202928800EB40036E
:101A900001EB83035A80012200EB400301EB830337
:101AA0005A70421CD0B2024A12789042C7DB70478B
:101AB0008500002010B5012080F3108800BFFEF7DC
:101AC000BCFC52490870002080F3108800BF5048C9
:101AD000007800284CD10846007800F00400042863
:101AE0003AD00846007800F00200002840D02620B6
:101AF0004849087025200872072048700120887026
:101B0000FEF7AFFC44490860FEF79EFC43490860BD
:101B10004148008800B23F4988804048008800B2B0
:101B2000C8803F480068401C3D490860084600885E
:101B30003849488155204872394800683949096850
:101B4000884202D1AA20334948720C213148FFF75C
:101B50002FFCFEF721FD0BE02C48007800F004007C
:101B6000042805D101203049087600202C4908605E
:101B700027480078012847D12448007800F0020067
:101B8000002833D02620234908702520087207201A
:101B9000487001208870FEF764FC1F490860FEF75A
:101BA00053FC1E4908601C48008800B2194988800F
:101BB0001A48008800B2C88019480068401C1849BB
:101BC0000860084600881349488155204872144827
:101BD000006814490968884202D1AA200D49487258
:101BE0000C210C48FFF7E4FBFEF7AEFC0C48006844
:101BF0000C490968884207D1FEF7CEFC01200A494A
:101C0000087600200649086010BD00004900002049
:101C100020000020BC0000204C00002050000020CC
:101C2000540000201C0000202400002010B51148A2
:101C3000007801281DD11048FFF72CFB0446FFF760
:101C4000B3FB002C04DD0D480078401C0B490870E4
:101C500009480078252809D10748007A262805D1A7
:101C60000120074908700020064908730020014937
:101C7000087010BD00000020C800002048000020AF
:101C8000180000202400002010B52A480078012800
:101C900048D1294840783F2809D1012027490870B8
:101CA000FEF752FC3F2026494870012088702248E8
:101CB00040781F2809D1002020490870FEF76CFCED
:101CC0001F201F494870012088701B4840780F284A
:101CD0000AD11B49487001208870FFF742F8FEF7CF
:101CE00047FC00201749087613484078032805D19F
:101CF0001349487001208870FEF774FC26201049B3
:101D00000870252008720C210D48FFF751FB0C22AA
:101D100000210B4800F06AFC01200A4908730020EA
:101D2000044908700848006880F00100064908600E
:101D300010BD000018000020C80000202000002076
:101D4000B0000020240000200C08014008B54FF42A
:101D5000C060FFF7A5F825208DF8000000208DF861
:101D6000010002208DF8020001208DF80300684672
:101D7000FFF75EF808BD10B500F050F800F004F869
:101D8000FFF7E4FF10BD000000B585B0012105207C
:101D9000FFF7B0F801218803FFF7ACF84FF40070AB
:101DA000ADF8100018208DF8130003208DF81200F4
:101DB00004A91848FEF73CFD4FF48060ADF8100010
:101DC00004208DF8130004A91248FEF731FD4FF4EA
:101DD000E13000900020ADF80400ADF80600ADF849
:101DE0000800ADF80C000C20ADF80A0069460A485E
:101DF00000F0A2F8012240F22551074800F077F8E0
:101E00000121054800F03DF84021034800F030F87A
:101E100005B000BD00080140003801400B480C49E6
:101E200008600C4848600C4888604FF480608881E6
:101E3000C881002008824882C8820883488388823B
:101E4000C8610862054848627047000000380140D8
:101E5000A8010020D0010020D00500206D2000083E
:101E600010B5024800F00EF910BD0000A8010020D6
:101E700001F40072B2F5007F00D100BFCA430280B6
:101E8000704721B1828942F40052828104E0828944
:101E90004DF6FF731A408281704770B502460024E8
:101EA00000230025002040F66A16B14200D100BF91
:101EB000C1F3421501F01F03012606FA03F3012DB9
:101EC00002D19689334006E0022D02D1168A3340B2
:101ED00001E0968A33400C12012606FA04F41688B3
:101EE000344013B10CB1012000E0002070BDF0B50A
:101EF0000346002400260025002040F66A17B94258
:101F000000D100BF1846C1F3421401F01F0601279B
:101F100007FA06F5012C01D10C3004E0022C01D1A6
:101F2000103000E014301AB107682F43076002E058
:101F30000768AF430760F0BD2DE9F04786B005465E
:101F40000E460024A24600BFA1460027B08900B17A
:101F500000BF2F462C8A4CF6FF700440F0880443E3
:101F60002C82AC894EF6F3100440B08831890843C6
:101F7000718908430443AC81AC8A4FF6FF400440AA
:101F8000B0890443AC8201A8FEF7D4FF1F48874202
:101F900002D1DDF810A001E0DDF80CA0A88900F462
:101FA000004040B10AEBCA0000EB0A10316849005A
:101FB000B0FBF1F807E00AEBCA0000EB0A10316849
:101FC0008900B0FBF1F86420B8FBF0F004012009AF
:101FD000642101FB1089A88900F4004040B132203F
:101FE00000EBC900B0FBF1F000F00700044308E08B
:101FF000322000EB09106421B0FBF1F000F00F007B
:1020000004432C8106B0BDE8F08700000038014091
:1020100001468888C0F308007047C1F30802828037
:102020007047000070B5044600200D49087040F26A
:102030002F150C4A2946012000F072F90A4890F841
:10204000960096280ADA084890F8961090F89600BC
:10205000401C054A82F896001046445470BD0000AA
:102060007600002079200008D009002010B5044631
:102070002046FFF7D7FF10BD0120014908707047C7
:102080007600002070B5044640F225512068FFF725
:1020900004FFE0B12068FFF7BBFFC5B2E18AA0688A
:1020A0004554E08A401C80B2E082E189884201DB2D
:1020B0000020E082608BE189884202DA608B401C5C
:1020C0006083606A10B12846616A884700BF40F2A9
:1020D00027712068FFF7E1FE08B3A08A60B90022EB
:1020E00040F227712068FFF702FF012240F22661CB
:1020F0002068FFF7FCFE37E0638A6268D15C2068E5
:10210000FFF78BFF608A401C80B26082A189884201
:1021100001DB00206082A08A401EA08224E040F201
:1021200026612068FFF7B9FEF0B1A08A50B90022FD
:1021300040F226612068FFF7DAFE206AA0B1206A2B
:10214000804711E0638A6268D15C2068FFF765FF11
:10215000608A401C80B26082A189884201DB002035
:102160006082A08A401EA08270BD02E008C8121FD3
:1021700008C1002AFAD170477047002001E001C170
:10218000121F002AFBD1704780F3108870470000AF
:1021900010B5044604B910BD012C00D10224012061
:1021A000FFF7F2FF08480460002008490870FFF7B5
:1021B000EBFF04E005480078012800D100E0F9E7D2
:1021C00000BF00BFE7E70000780000207C0000208F
:1021D000F0B5034600224FF0E02675690F4E3668D1
:1021E0000F4FB6FBF7F606FB03F400BF4FF0E026F7
:1021F000B16910E04FF0E026B06988420BD0884208
:1022000002D20E1A324402E02E1A0E443244014623
:10221000A24200D300E0EDE700BFF0BD9C0000202B
:1022200040420F007FB501210846FEF743FE1748E4
:10223000006846081648B6FBF0F085B24FF6FF740A
:10224000ADF80840ADF804500020ADF80A00ADF834
:10225000060001A94FF08040FFF79CFB0121880791
:10226000FFF765FB4FF4C060FEF71AFE1C208DF8E7
:10227000000001208DF8010002208DF802000120ED
:102280008DF803006846FEF7D3FD7FBD9C0000205B
:1022900040420F0010B54FF4C060FEF701FEFEF79C
:1022A00087FDFFF72DFAFFF7BDFFFFF764FDFEF78F
:1022B000ABFEFEF7DDFEFFF777F8FEF783FAFEF7D9
:1022C000A7FDFEF7EBF9FEF73DFCFEF74AFD00F037
:1022D0008BF800F0B7F810BD07480068401C0649AD
:1022E0000860322807D1002008600448006880F0A8
:1022F0000100024908607047580000200C080140A6
:102300007047416851B14168491E416031B90121AE
:1023100041700178012901D1816841607047000056
:102320002DE9F04104460F461546052F00D37F1FC7
:102330004FF08040FFF707FB804608EB0706012CB3
:102340000FD125480560B1B2A007FFF719FB0221A4
:102350004807FFF7E9FA012202214807FFF707FBC8
:1023600038E0022C0FD11D480560B1B26007FFF7BD
:1023700009FB04210807FFF7D7FA01220421080707
:10238000FFF7F5FA26E0032C10D115480560B1B22D
:102390004FF08040FFF7F8FA0821C806FFF7C4FAAB
:1023A00001220821C806FFF7E2FA13E0042C0FD13E
:1023B0000C480560B1B22007FFF7E8FA1021880643
:1023C000FFF7B2FA012210218806FFF7D0FA01E0E8
:1023D000BDE8F08100BFFBE764000020680000203A
:1023E0006C0000207000002008B501211020FEF7CD
:1023F00081FD10208DF8030003208DF802000120DC
:10240000ADF8000069460E48FEF712FA0220ADF85A
:10241000000069460A48FEF70BFA0420ADF80000F8
:1024200069460748FEF704FA0820ADF8000069463F
:102430000348FEF7FDF901210148FEF78FFA08BDB8
:102440000010014008B501212020FEF753FD1020A7
:102450008DF8030003208DF802000820ADF800007D
:1024600069460E48FEF7E4F90420ADF8000069461D
:102470000A48FEF7DDF90220ADF80000694607487A
:10248000FEF7D6F90120ADF8000069460348FEF7D3
:10249000CFF908210148FEF761FA08BD0014014098
:1024A000FFF7F8FE0A20FFF773FE94E0FEF768FFDF
:1024B00049490870084600780028F6DD474800784A
:1024C0002528F2D14548007A2628EED143484078A5
:1024D000EF2803D142494870012088703F48407876
:1024E0007F282FD13E483D490A6802604A68426011
:1024F0008968816001468878FDF7ECFF38494868B3
:10250000FDF7D5FF36484068364908603448C07842
:1025100033498978401A4FF47A7148433049496801
:1025200090FBF1F42046FDF7A9FF2D49487A00F011
:1025300067F82B49887A00F0D9F87F20284948703D
:1025400001208870254840783F2809D1012026497C
:102550000870FDF7F9FF3F2021494870012088707D
:102560001E4840781F2809D100201F490870FEF737
:1025700013F81F201A4948700120887017484078C6
:102580000F2807D11649487001208870FEF7E9FB33
:10259000FDF7EEFF11484078032805D11049487037
:1025A00001208870FEF71EF826200D4908702520AE
:1025B0000872094801780A48FEF7FAFE0C22002149
:1025C000074800F013F880220021044800F00EF8BC
:1025D00000200149087069E701000020280100205F
:1025E000B0000020040000200800002010B501E029
:1025F00000F8011B131EA2F10102F9D110BD000069
:1026000010B50446082C6DD2DFE804F004111E2B2F
:102610003845525F02213448FEF79EF904213248C2
:10262000FEF79AF908213048FEF796F95AE00221A0
:102630002D48FEF793F904212B48FEF78DF9082168
:102640002948FEF789F94DE002212748FEF784F971
:1026500004212548FEF782F908212348FEF77CF97A
:1026600040E002212048FEF779F904211E48FEF7D8
:1026700075F908211C48FEF76FF933E002211A486A
:10268000FEF76AF904211848FEF766F90821164892
:10269000FEF764F926E002211348FEF75FF90421F2
:1026A0001148FEF759F908210F48FEF757F919E0CC
:1026B00002210D48FEF750F904210B48FEF74EF9B0
:1026C00008210948FEF74AF90CE002210648FEF706
:1026D00045F904210448FEF741F908210248FEF7B4
:1026E0003DF900BF00BF10BD0010014010B5044609
:1026F000082C6DD2DFE804F004111E2B3845525F20
:1027000004213448FEF728F902213248FEF724F963
:1027100001213048FEF720F95AE004212D48FEF748
:102720001DF902212B48FEF717F901212948FEF770
:1027300013F94DE004212748FEF70EF90221254840
:10274000FEF70CF901212348FEF706F940E00421C9
:102750002048FEF703F902211E48FEF7FFF8012189
:102760001C48FEF7F9F833E004211A48FEF7F4F8A4
:1027700002211848FEF7F0F801211648FEF7EEF89E
:1027800026E004211348FEF7E9F802211148FEF77C
:10279000E3F801210F48FEF7E1F819E004210D48A4
:1027A000FEF7DAF802210B48FEF7D8F801210948B4
:1027B000FEF7D4F80CE004210648FEF7CFF802211A
:1027C0000448FEF7CBF801210248FEF7C7F800BF26
:1027D00000BF10BD001401406C0680070008FF090F
:1027E000FC09F909F6090708090A0B0C00010203A4
:1027F00004050607080931323334353637383930A5
:102800004142434445464748494A4B002C2800086A
:1028100000000020B00000006A210008DC28000849
:10282000B0000020B00F00007A2100080000000076
:102830000000000000000000000000000000000098
:102840000000000000000000000000000000000088
:1028500000000100050000002D1C0008010001001F
:1028600005000000891C0008010001006400000050
:10287000B51A000800000000000000000000000081
:102880000000000000000000000000000000000048
:102890000000000000000000000000000000000038
:1028A0000000000000000000000000000000000028
:1028B00000000000000001020304010203040607F7
:1028C000080902040608000000A24A0400000000F3
:0C28D000000000000102030406070809D4
:0400000508000131BD
:00000001FF
