:020000040800F2
:1000000000100020450100084D0100084F010008C4
:1000100051010008530100085501000800000000CC
:100020000000000000000000000000005701000870
:1000300059010008000000005B010008E1130008FE
:100040005F0100085F0100085F0100085F01000810
:100050005F0100085F0100085F0100085F01000800
:10006000750600085F0100085F0100085F010008D5
:100070005F0100085F0100085F0100085F010008E0
:100080005F0100085F0100085F0100085F010008D0
:100090005F0100085F0100085F0100085F010008C0
:1000A0005F0100085F0100085F0100085F010008B0
:1000B000CD1400085F0100085F0100085F0100081F
:1000C0005F0100085F0100085F0100085F01000890
:1000D0005F0100088D1700085F0100085F0100083C
:1000E0005F0100085F0100085F0100085F01000870
:1000F0005F0100085F0100085F0100085F01000860
:100100005F0100085F0100085F0100085F0100084F
:100110005F0100085F0100085F0100085F0100083F
:100120005F0100085F0100085F0100085F0100082F
:10013000DFF80CD000F060F900480047F11F00081C
:10014000001000200648804706480047FEE7FEE70B
:10015000FEE7FEE7FEE7FEE7FEE7FEE7FEE7FEE777
:100160006D140008310100082DE9FE4F81EA0304F7
:1001700004F0004421F0004100944FF0000B23F004
:10018000004350EA01045ED052EA03045BD0C3F39B
:100190000A54C1F30A552C44A4F2F3340194A0FB91
:1001A0000254C1F3130141F48011C3F3130343F468
:1001B000801301FB024400FB034E840A970A44EAC1
:1001C000815447EA8357A4FB076802958D0A05FB13
:1001D00007854FEA932C04FB0C542705029D4FEA38
:1001E000065847EA1637B5EB08056EEB070C870E85
:1001F000920E47EA811742EA8312A7FB0201B6EB8F
:100200000B0164EB00042B0D43EA0C335E1844EB46
:100210001C50DA465146E7FB0201C5F313044FEACE
:100220000B3343EA14534FEA0432019C43EA0603BA
:10023000A4F10C040294009CCDE900B400F08DF808
:1002400003B0BDE8F08F00200146F9E796230022B5
:10025000114600F045B8C1F30A5210B5C1F31301BD
:1002600040F2FF3341F480119A4201DA002010BDC0
:1002700040F233439A42A2F2334203DC524200F08E
:1002800016F810BD904010BD00F0004230F0004064
:100290000AD0C10D01F56071C0F3160042EA0151A8
:1002A000C208400711437047002001467047202ACA
:1002B00004DB203A21FA02F00021704721FA02F310
:1002C000D040C2F1200291400843194670470029EE
:1002D000A8BF7047401C490008BF20F001007047CC
:1002E00010B4B0FA80FC00FA0CF050EA010404BF2C
:1002F00010BC704749B1CCF1200421FA04F411FA82
:100300000CF118BF012121430843A3EB0C01CB1DC5
:100310004FEA00614FEA102042BF002010BC704736
:1003200000EBC35010440029A4BF10BC7047401C10
:10033000490008BF20F0010010BC704710B5141E22
:1003400073F1000408DA401C41F1000192185B418E
:100350001A4301D120F0010010BD2DE9F04D924665
:100360009B4611B1B1FA81F202E0B0FA80F220327C
:10037000904600F053F804460F4640EA0A0041EA6E
:100380000B0153465A46084313D0114653EA010065
:1003900019D0C8F140025046FFF789FF05460E46C6
:1003A00050465946424600F039F8084305D001202E
:1003B00004E020463946BDE8F08D0020054346EABA
:1003C000E0762C4337430A986305E40AA0EB080063
:1003D0000022FD0A44EA47540A3002D500200146B3
:1003E000E9E7010510196941DDE90845001969418E
:1003F000BDE8F04DA2E70000064C074D06E0E068BE
:1004000040F0010394E8070098471034AC42F6D35B
:10041000FFF792FED0270008F0270008202A04DB0F
:10042000203A00FA02F1002070479140C2F1200307
:1004300020FA03F319439040704710B58F2000F065
:1004400052FA0446204610BD70B5962000F04BFAD3
:100450000446972000F047FA054645EA0426304650
:1004600070BD70B5942000F03EFA0446952000F06F
:100470003AFA054645EA0426304670BD38B50446CA
:100480002046FFF7E3FE0546694600F017F99DF8A0
:100490000010852000F064FA9DF80110862000F01D
:1004A0005FFA9DF80210872000F05AFA38BD38B57F
:1004B0000446200A8DF80000E0B28DF801009DF896
:1004C0000010882000F04CFA9DF80110892000F0FF
:1004D00047FA38BD38B50446A4022046FFF7B6FEF9
:1004E0000546694600F0EAF89DF80010822000F009
:1004F00037FA9DF80110832000F032FA9DF80210BF
:10050000842000F02DFA38BD2DE9F04104460D4657
:1005100016461F46DDF8188044EA0500304338438C
:1005200040EA08000749086008460088C0F3072130
:10053000802000F015FA03480178812000F010FABD
:10054000BDE8F0811C00002010B508480088C0F309
:100550000B0040F480400549086008460088C0F35D
:100560000721802000F0FCF910BD00001C000020D5
:1005700010B508480088C0F30B0040F4005005494E
:10058000086008460088C0F30721802000F0E8F9E1
:1005900010BD00001C00002010B508480088C0F302
:1005A0000B0040F440500549086008460088C0F33D
:1005B0000721802000F0D4F910BD00001C000020AD
:1005C00010B5074800684FF6EF71084040F0100082
:1005D0000349086008460178812000F0C1F910BD88
:1005E0001C00002010B508480088C0F30B0040F440
:1005F00030400549086008460088C0F30721802084
:1006000000F0AEF910BD00001C00002010B5084835
:100610000088C0F30B0040F480500549086008468C
:100620000088C0F30721802000F09AF910BD000077
:100630001C0000202DE9F04105460E4617464FF4F8
:1006400080510B4800F04BF945F0800000F052FD5E
:10065000002404E0305D00F04DFD601CC4B2BC42DB
:10066000F8DB4FF48051024800F03BF9BDE8F0811F
:10067000000C014010B5042000F00CF810B104206B
:1006800000F002F810BD000001490860704700004A
:1006900014040140014600200022074B1B6803EAB6
:1006A0000102054B14331B680B4013B10AB1012042
:1006B00000E0002070470000000401402DE9F047F1
:1006C00082460C465046FFF7DFFD0746084A094BB5
:1006D000FFF74AFD0546FFF7BEFD81464FEA194088
:1006E00020704FEA1920607084F80290BDE8F0870E
:1006F000B30669014C00404008B50121042000F018
:100700001DFA0420ADF8000003208DF8020004203B
:100710008DF803006946024800F004F808BD0000A7
:10072000000801402DE9F041024600250026002086
:1007300000230024002791F803C00CF00F0591F866
:1007400003C00CF0100CBCF1000F03D091F802C0F4
:100750004CEA050591F800C0BCF1000F31D01468D7
:1007600000202BE04FF0010C0CFA00F3B1F800C0B0
:100770000CEA03069E4220D183004FF00F0C0CFAC6
:1007800003F7BC4305FA03FC4CEA040491F803C0E8
:10079000BCF1280F06D14FF0010C0CFA00FCC2F896
:1007A00014C00AE091F803C0BCF1480F05D14FF026
:1007B000010C0CFA00FCC2F810C0401C0828D1D370
:1007C0001460B1F800C0BCF1FF0F34DD54680020A4
:1007D0002EE000F1080C4FF0010808FA0CF3B1F814
:1007E00000C00CEA03069E4221D183004FF00F0C9B
:1007F0000CFA03F7BC4305FA03FC4CEA040491F835
:1008000003C0BCF1280F05D100F1080C08FA0CF860
:10081000C2F8148091F803C0BCF1480F07D100F171
:10082000080C4FF0010808FA0CF8C2F81080401CC0
:100830000828CED35460BDE8F0810000F0B50A4628
:10084000002300240021002500F00046B6F1004FEF
:1008500002D11D4EF16901E01B4E7168C0F30345E2
:1008600083B200F44016B6F5401F08D121F0706144
:10087000154E766826F07066134F7E6012E000F425
:100880008016B6F5801F06D1032606FA05F4A143AB
:1008900041F0706106E0460D360103FA06F6B143F9
:1008A00041F0706122B1460D360103FA06F631437C
:1008B00000F00046B6F1004F02D1034EF16101E0B5
:1008C000014E7160F0BD00000000014002460020B2
:1008D00093680B400BB1012000E00020704741619C
:1008E00070470161704770B50446FF2501F08CFA2E
:1008F00001F038FB1A2001F00BFB01F05BFB00B1AB
:1009000027E0B02001F004FB01F054FB00B120E02F
:10091000204601F0FDFA01F04DFB00B119E001F0B5
:1009200039FB282001F088FA01F01CFB1B2001F0A4
:10093000EFFA01F03FFB00B10BE001F0C7FA05460A
:1009400001F0B0FA01F026FB282001F075FA2846E4
:1009500070BD01F01FFB282001F06EFA0020F7E7C0
:1009600070B505460C4601F04FFA01F0FBFA1A206B
:1009700001F0CEFA01F01EFB00B114E0284601F0B0
:10098000C7FA01F017FB00B10DE0204601F0C0FAF4
:1009900001F010FB00B106E001F0FCFA282001F0A4
:1009A0004BFA012070BD01F0F5FA282001F044FA5D
:1009B0000020F7E710B501F049FA10BD1FB502217C
:1009C0008A20FFF7CDFFC8218B20FFF7C9FF002049
:1009D00003464FF48072014600904FF43040FFF719
:1009E00093FDFFF7EDFDFFF711FE002003900EE0F1
:1009F0000020029004E0002001900298401C029028
:100A00000298B0F57A7FF6DB0398401C03900398B8
:100A1000B0F57A7FECDB1FBD08B50121042000F0A2
:100A20008DF80120ADF8000010208DF803000320A0
:100A30008DF8020069460F48FFF774FE0120ADF8FB
:100A4000000069460B48FFF76DFE0120ADF800007D
:100A500069460848FFF766FE01210648FFF741FF97
:100A600001210448FFF73DFF01210248FFF739FF4C
:100A700008BD00000008014070B5002100230F22CE
:100A8000C47804B3154C246804F4E064C4F5E0644D
:100A9000210AC1F10403CA40447804FA03F18478BE
:100AA0001440214309010E4C0678A155047804F046
:100AB0001F050124AC4005786D11AD0005F1E0255E
:100AC000C5F8004109E0047804F01F050124AC409A
:100AD000044D0678761145F8264070BD0CED00E017
:100AE00000E400E080E100E002490143024A1160B5
:100AF000704700000000FA050CED00E029B1064A3D
:100B0000D2690243044BDA6104E0034AD2698243AA
:100B1000014BDA61704700000010024029B1064A1B
:100B200012690243044B1A6104E0034A12698243CA
:100B3000014B1A61704700000010024029B1064ABB
:100B400092690243044B9A6104E0034A926982432A
:100B5000014B9A61704700000010024029B1064A1B
:100B6000D2680243044BDA6004E0034AD26882434D
:100B7000014BDA60704700000010024030B50021E0
:100B80000022002400232D4D6D6805F00C0121B1D9
:100B9000042905D0082923D105E0294D056022E06C
:100BA000274D05601FE0254D6D6805F47012234D3B
:100BB0006D6805F48034022505EB92421CB9214D85
:100BC000554305600BE01D4D6D6805F400351DB102
:100BD0001C4D5543056002E0194D5543056002E088
:100BE000174D056000BF00BF144D6D6805F0F001A2
:100BF0000909154D6B5C0568DD4045600F4D6D685A
:100C000005F4E061090A104D6B5C4568DD408560C4
:100C10000A4D6D6805F46051C90A0B4D6B5C45685F
:100C2000DD40C560054D6D6805F44041890B074DF9
:100C30006B5CC568B5FBF3F5056130BD0010024083
:100C400000127A0000093D004500002055000020F8
:100C500008B501210420FFF771FF01210820FFF7EB
:100C60006DFF4FF48070ADF8000003208DF8020096
:100C700010208DF8030069460D48FFF753FD4FF42F
:100C80008050ADF8000003208DF8020010208DF890
:100C9000030069460748FFF745FD0420ADF8000052
:100CA0008DF8030069460248FFF73CFD08BD0000CF
:100CB00000080140000C014010B500F0B1F900F04F
:100CC000ABF810BD70B506464FF480714748FFF78A
:100CD00006FE642404E00A2000F010FF601EC4B287
:100CE000002CF8D14FF480714048FFF7FAFDFA2448
:100CF00004E00A2000F002FF601EC4B2002CF8D10C
:100D000000F056F9FA2404E0012000F0F7FE601E1E
:100D1000C4B2002CF8D100F073F8422000F006FABB
:100D2000054600BF06E0324931F8140000F01CFA15
:100D3000601CC4B2032CF6DB2E49088800F014FABC
:100D400040F60B3000F010FA40F6234000F00CFAA9
:100D500029484078062823D12849097A4FF4E852D7
:100D600002EB011101F1090000F0FEF92249497876
:100D70004FF4F05202EB0111C81C00F0F5F93120DC
:100D800000F0D4F9054605F0F80545F0050505F530
:100D9000445000F0E9F943F20C7000F0E5F912E07C
:100DA0001649097A4FF4E85202EB011101F10800EB
:100DB00000F0DAF9104949784FF4F05202EB0111D2
:100DC000C81C00F0D1F941F6FF7000F0CDF94FF4E6
:100DD000005000F0C9F942F20C1000F0C5F944F2DD
:100DE000011000F0C1F900F0E9F870BD0008014001
:100DF0009C270008A2270008AA270008B02700089F
:100E000010B54FF4C47000F0AFF910BD10B541F249
:100E1000FF2000F0A9F910BD10B50020FFF752FF28
:100E200044F6845000F0A0F942F2FF4000F09CF933
:100E300044F2010000F098F941F23F1000F094F9FB
:100E4000FFF7E4FF42F2152000F08EF90F2000F0CA
:100E50006DF9044604F5506000F086F940F20D107B
:100E600000F082F910BD2DE9F04104460027002072
:100E7000FFF728FF4FF47A7000F040FE44F68750E9
:100E800000F072F94FF4105000F06EF944F2410096
:100E900000F06AF9FFF7BAFF41F2F71000F064F9C9
:100EA00004F5085000F060F90E2000F03FF9064606
:100EB00006F5506000F058F90BE0222000F036F9FA
:100EC0000546A54200D105E0032F02DB0020BDE866
:100ED000F081F2E700BF2046F9E700002DE9F0417C
:100EE0000546002603E00020A855701CC6B2202E3F
:100EF000F9DB102000F01AF9074607F5506000F002
:100F000033F9012000F0FAFD0F484078062801D19E
:100F1000152403E0132000F009F90446012C04D144
:100F2000002000F003F9287006E00848047022460B
:100F30002946002000F0B8F8FFF768FF012000F014
:100F4000DDFD2046BDE8F081AA2700082000002032
:100F500070B505460C460026224629460020FFF7BC
:100F600069FB40F20B1000F0FFF809E0701C80B242
:100F70000646B0F57A7F00DD08E0012000F09EFD16
:100F800004210A48FFF7A2FC0028EFD000BF12207E
:100F900000F0CCF8FFF73AFF00F010F8B6F57A7FD2
:100FA00001DD002070BD2046FCE700000008014084
:100FB00010B54FF4847000F0D7F810BD10B540F2B2
:100FC000091000F0D1F810BD10B500240421064826
:100FD000FFF77CFC28B10548FFF780FF044600F0CE
:100FE00007F8204610BD000000080140C80000209E
:100FF00010B5FFF711FF10BD70B506460C46002571
:101000002046FFF730FF054621463046FFF7A0FF98
:101010000546052000F052FDFFF7EAFF284670BDA7
:1010200000B587B01E4800F0C3F801210820FFF783
:1010300085FD01218803FFF761FD4FF46040ADF8A5
:10104000040018208DF8070003208DF8060001A980
:101050001448FFF767FB0020ADF808004FF48270DA
:10106000ADF80A000020ADF80C00ADF80E00ADF8A8
:1010700010004FF40070ADF812003820ADF81400E5
:101080000020ADF816000720ADF8180002A90448AA
:1010900000F0C8F80121024800F07EF807B000BD5A
:1010A00000380040000C01402DE9F04106460F4693
:1010B0001546012D01DCBDE8F0814FF480510C484C
:1010C000FFF70DFC06F07F0000F014F8002405E0A7
:1010D000FF2000F00FF83855601CC4B2AC42F7DBBB
:1010E0004FF480510248FFF7FCFB00BFE3E700002C
:1010F000000C014010B5044600BF02210A4800F070
:1011000083F80028F9D02146074800F089F800BF8D
:101110000121054800F078F80028F9D0024800F0D5
:101120007CF8C0B210BD00000038004070B5044625
:101130004FF480510848FFF7D2FB04F07F00FFF71F
:10114000D9FF00F00BF805464FF480510248FFF735
:10115000C8FB284670BD0000000C014010B5FF2000
:10116000FFF7C8FF10BD000010B5044644F400446A
:101170004FF480510748FFF7B2FB2012FFF7BAFF88
:10118000E0B2FFF7B7FF4FF480510248FFF7A9FB29
:1011900010BD0000000C014021B1028842F0400265
:1011A000028004E002884FF6BF731A400280704745
:1011B00010B504461148844208D101218014FFF77C
:1011C000CDFC0021A014FFF7C9FC16E00C488442B6
:1011D00008D101210014FFF7A1FC00212014FFF722
:1011E0009DFC0AE00748844207D10121C013FFF7A4
:1011F00095FC0021E013FFF791FC10BD0030014089
:1012000000380040003C00400246002013890B409B
:101210000BB1012000E0002070470146888970472B
:101220008181704710B50022028802F441520B8878
:101230004C8823438C882343CC8823430C89234345
:101240004C8923438C892343CC8923431A4302804E
:10125000838B4FF2FF74234083830B8A038210BD7C
:1012600010B500F001F810BD0CB500200190009001
:101270003348006840F480303149086000BF30488E
:10128000006800F4003000900198401C0190009824
:1012900018B90198B0F5A06FF1D12948006800F4A1
:1012A000003010B10120009001E000200090009873
:1012B000012843D12348006840F01000214908600C
:1012C0000846006820F0030008600846006840F007
:1012D000020008601A48406819494860084640689A
:1012E00048600846406840F48060486008464068AE
:1012F00020F47C1048600846406840F4E8104860DC
:101300000846006840F08070086000BF0C48006824
:1013100000F000700028F9D00948406820F0030070
:10132000074948600846406840F00200486000BF36
:101330000348406800F00C000828F9D10CBD0000FB
:10134000001002400020024070B5002016E000218D
:1013500000EB40021E4B03EB8202516000EB4002A7
:1013600003EB8202916000EB400203EB82025170BA
:1013700000EB400203F82210411CC8B20428E6DB4F
:10138000144909684FF47A73B1FBF3F2511EB1F1BD
:10139000807F00D31BE0511E4FF0E02359615917A5
:1013A0000F23002904DB1C07250E0B4C655406E0B7
:1013B0001C07260E094C01F00F052D1F665500BFB6
:1013C00000214FF0E02399610721196100BF70BD32
:1013D000D00B00205C00002000E400E018ED00E0ED
:1013E00010B500F001F810BD10B51B48006840B101
:1013F00019480068401E1849086010B901201749B3
:101400000870002408E004EB4401154A02EB810057
:1014100000F009FC601CC4B2042CF4DB1148006825
:10142000401C10490860084600686FF0004188427F
:1014300002D100200B49086000F0F4FB0A48007854
:10144000401CC0B2084908700A2803DB002008705D
:1014500000F0D4FB10BD0000380000203C0000204C
:10146000D00B0020400000204400002010B513489D
:10147000006840F0010011490860084640681049C2
:1014800008400E494860084600680E4908400B496C
:1014900008600846006820F480200860084640681C
:1014A00020F4FE0048604FF41F008860FFF7D8FE6C
:1014B0004FF000600449086010BD000000100240B9
:1014C0000000FFF8FFFFF6FE08ED00E010B5022176
:1014D000480700F05BF858B10221480700F044F8D3
:1014E00000220221480700F062F81B48006880478C
:1014F0000421080700F04AF858B10421080700F059
:1015000033F800220421080700F051F8134800685E
:1015100080470821C80600F039F858B10821C806EC
:1015200000F022F800220821C80600F040F80C481C
:10153000006880471021880600F028F858B1102173
:10154000880600F011F800221021880600F02FF81C
:1015500004480068804710BD2400002028000020B7
:101560002C00002030000020CA430282704721B1C5
:10157000028842F00102028004E002884FF6FE7306
:101580001A40028070470146888C704730B5024689
:10159000002000230024158A05EA0103958905EA45
:1015A000010413B10CB1012000E0002030BD1AB1DC
:1015B00083890B43838102E083898B438381704756
:1015C000818670470187704781877047A0F8401077
:1015D00070470000002202881D4B98420ED01D4B20
:1015E00098420BD0B0F1804F08D01B4B984205D0E9
:1015F0001A4B984202D01A4B984204D14FF68F737F
:101600001A404B881A43174B984207D0164B984202
:1016100004D04FF6FF431A40CB881A4302808B88D0
:1016200083850B8803850A4B98420BD0094B98425F
:1016300008D00E4B984205D00D4B984202D00D4B6E
:10164000984201D10B7A0386012383827047000000
:10165000002C01400034014000040040000800401C
:10166000000C004000100040001400400040014009
:10167000004401400048014008B54FF4C060FFF746
:1016800033FA25208DF8000000208DF8010002209B
:101690008DF8020001208DF803006846FFF7ECF991
:1016A00008BD10B500F050F800F004F8FFF7E4FFB3
:1016B00010BD000000B585B001210520FFF73EFAFE
:1016C00001218803FFF73AFA4FF40070ADF81000DB
:1016D00018208DF8130003208DF8120004A9184873
:1016E000FFF720F84FF48060ADF8100004208DF86B
:1016F000130004A91248FFF715F84FF4E1300090E9
:101700000020ADF80400ADF80600ADF80800ADF813
:101710000C000C20ADF80A0069460A4800F0A2F857
:10172000012240F22551074800F077F801210548D1
:1017300000F03DF84021034800F030F805B000BD4E
:1017400000080140003801400B480C4908600C4873
:1017500048600C4888604FF480608881C881002010
:1017600008824882C882088348838882C8610862E8
:1017700005484862704700000038014048010020D9
:1017800070010020700500209919000810B502486A
:1017900000F00EF910BD00004801002001F40072B5
:1017A000B2F5007F00D100BFCA430280704721B16B
:1017B000828942F40052828104E082894DF6FF73EF
:1017C0001A408281704770B502460024002300252C
:1017D000002040F66A16B14200D100BFC1F34215A5
:1017E00001F01F03012606FA03F3012D02D19689A9
:1017F000334006E0022D02D1168A334001E0968A7A
:1018000033400C12012606FA04F41688344013B152
:101810000CB1012000E0002070BDF0B503460024AB
:1018200000260025002040F66A17B94200D100BF0B
:101830001846C1F3421401F01F06012707FA06F506
:10184000012C01D10C3004E0022C01D1103000E059
:1018500014301AB107682F43076002E00768AF43EE
:101860000760F0BD2DE9F04786B005460E4600241E
:10187000A24600BFA1460027B08900B100BF2F4695
:101880002C8A4CF6FF700440F08804432C82AC890B
:101890004EF6F3100440B08831890843718908433B
:1018A0000443AC81AC8A4FF6FF400440B089044346
:1018B000AC8201A8FFF762F91F48874202D1DDF828
:1018C00010A001E0DDF80CA0A88900F4004040B1B0
:1018D0000AEBCA0000EB0A1031684900B0FBF1F8CE
:1018E00007E00AEBCA0000EB0A1031688900B0FB80
:1018F000F1F86420B8FBF0F004012009642101FB39
:101900001089A88900F4004040B1322000EBC900E2
:10191000B0FBF1F000F00700044308E0322000EBD8
:1019200009106421B0FBF1F000F00F0004432C819A
:1019300006B0BDE8F0870000003801400146888805
:10194000C0F308007047C1F30802828070470000AE
:1019500070B5044600200D49087040F22F150C4A5E
:101960002946012000F06EF90A4890F89600962862
:101970000ADA084890F8961090F89600401C054A3C
:1019800082F896001046445470BD000034000020D8
:10199000A51900087009002010B504462046FFF77D
:1019A000D7FF10BD012001490870704734000020A6
:1019B00070B5044640F225512068FFF704FFE0B1FE
:1019C0002068FFF7BBFFC5B2E18AA0684554E08AF2
:1019D000401C80B2E082E189884201DB0020E08285
:1019E000608BE189884202DA608B401C6083606A08
:1019F00010B12846616A884700BF40F2277120680D
:101A0000FFF7E1FE08B3A08A60B9002240F2277117
:101A10002068FFF702FF012240F226612068FFF7ED
:101A2000FCFE37E0638A6268D15C2068FFF78BFFB9
:101A3000608A401C80B26082A189884201DB00205C
:101A40006082A08A401EA08224E040F226612068C5
:101A5000FFF7B9FEF0B1A08A50B9002240F226612A
:101A60002068FFF7DAFE206AA0B1206A804711E003
:101A7000638A6268D15C2068FFF765FF608A401C5A
:101A800080B26082A189884201DB00206082A08A46
:101A9000401EA08270BD02E008C8121F08C1002AC3
:101AA000FAD170477047002001E001C1121F002ADF
:101AB000FBD1704780F310887047000010B50446D2
:101AC00004B910BD012C00D102240120FFF7F2FF60
:101AD00008480460002008490870FFF7EBFF04E0A5
:101AE00005480078012800D100E0F9E700BF00BFF9
:101AF000E7E70000380000203C000020F0B5034676
:101B000000224FF0E02675690F4E36680F4FB6FB86
:101B1000F7F606FB03F400BF4FF0E026B16910E0D2
:101B20004FF0E026B06988420BD0884202D20E1AEC
:101B3000324402E02E1A0E4432440146A24200D33F
:101B400000E0EDE700BFF0BD5C00002040420F0068
:101B50007FB501210846FEF7D1FF17480068460807
:101B60001648B6FBF0F085B24FF6FF74ADF80840AA
:101B7000ADF804500020ADF80A00ADF8060001A948
:101B80004FF08040FFF726FD01218807FFF7EFFCAB
:101B90004FF4C060FEF7A8FF1C208DF80000012064
:101BA0008DF8010002208DF8020001208DF803005D
:101BB0006846FEF761FF7FBD5C00002040420F00D9
:101BC00010B54FF4C060FEF78FFFFEF725FFFFF75B
:101BD000BBFBFFF7BDFFFFF764FDFFF739F8FFF729
:101BE0006BF8FFF705FAFEF787FDFEF7E3FEFEF759
:101BF000E5FE00F08BF800F0CDF810BD0748006856
:101C0000401C06490860322807D1002008600448BB
:101C1000006880F001000249086070471800002049
:101C20000C0801407047416851B14168491E41604C
:101C300031B9012141700178012901D181684160E8
:101C4000704700002DE9F04104460F461546052F68
:101C500000D37F1F4FF08040FFF795FC804608EBD4
:101C60000706012C0FD125480560B1B2A007FFF788
:101C7000A7FC02214807FFF777FC01220221480751
:101C8000FFF795FC38E0022C0FD11D480560B1B27A
:101C90006007FFF797FC04210807FFF765FC0122A6
:101CA00004210807FFF783FC26E0032C10D1154818
:101CB0000560B1B24FF08040FFF786FC0821C806EE
:101CC000FFF752FC01220821C806FFF770FC13E061
:101CD000042C0FD10C480560B1B22007FFF776FC49
:101CE00010218806FFF740FC012210218806FFF72B
:101CF0005EFC01E0BDE8F08100BFFBE724000020AE
:101D0000280000202C0000203000002008B5012110
:101D10000820FEF713FF01210846FEF70FFF0121FF
:101D20001A48FEF78BFD10208DF8030003208DF874
:101D3000020040F61B70ADF8000069461448FEF73B
:101D4000F1FC01211248FEF7CCFD02211048FEF7FC
:101D5000C6FD08210E48FEF7C2FD10210C48FEF713
:101D6000BEFD4FF400710A48FEF7B9FD4FF48061E3
:101D70000748FEF7B4FD4FF400610548FEF7AFFDDC
:101D80004FF480710248FEF7AAFD08BD0002300042
:101D9000000C014008B501210420FEF7CFFE102001
:101DA0008DF8030003208DF8020049F6F800ADF825
:101DB000000069461348FEF7B5FC08211148FEF7FC
:101DC00090FD10210F48FEF78AFD20210D48FEF7F7
:101DD00086FD40210B48FEF782FD80210948FEF771
:101DE0007EFD4FF400610748FEF779FD4FF4805106
:101DF0000448FEF774FD4FF400410248FEF76FFD02
:101E000008BD00000008014010B50AE04020094963
:101E1000086000F03FF840200649091F086000F004
:101E200039F8802103481438FEF750FD0028EDD022
:101E300010BD0000140C014001B502E00098401EE6
:101E4000009000980028F9D108BD000008B50121D4
:101E50000820FEF773FE4020ADF8000003208DF847
:101E6000020010208DF8030069460948FEF75AFC6D
:101E70008020ADF8000003208DF8020014208DF8BA
:101E8000030069460248FEF74DFC00F083F808BDE8
:101E9000000C0140002001E0411CC8B21428FBDB0B
:101EA0007047000010B5802007490860FFF7F2FF77
:101EB000402005490860FFF7EDFF40200249091D59
:101EC0000860FFF7E7FF10BD100C014070B500245B
:101ED000002516E06006040E40200C490860FFF75C
:101EE000D9FF802109481038FEF7F0FC08B1601CCA
:101EF000C4B240200549091D0860FFF7CBFF681CEC
:101F0000C5B2082DE6DB204670BD0000100C014074
:101F100070B50446002520E004F0800018B1802050
:101F20000F49086003E080200D49091D0860FFF794
:101F3000B1FF40200A490860FFF7ACFF4020084984
:101F4000091D0860072D02D18020091F0860600666
:101F5000040EFFF79FFF681CC5B2082DDCDB70BDC7
:101F6000100C014010B5802009490860402008602D
:101F7000FFF790FF80200649091D0860FFF78AFFE0
:101F800040200349091D0860FFF784FF10BD0000D1
:101F9000100C014010B58020054908604020091F41
:101FA0000860FFF777FF80200149091F086010BD16
:101FB000140C014010B580200C490860FFF76AFF3F
:101FC00040200A490860FFF765FF80210748103864
:101FD000FEF77CFC08B1012400E000244020034906
:101FE000091D0860FFF756FF204610BD100C014088
:101FF000FFF7E6FD0A20FFF761FD45E1FEF7E4FF8C
:10200000A24908700846007800287DDDA0480078C5
:10201000252879D19E48007A2628FAD19C48407814
:10202000EF2803D19B494870012088709848407878
:102030007F282FD1974896490A6802604A68426013
:102040008968816001468878FEF744FA91494868BA
:10205000FEF72DFA8F4840688F4908608D48C07898
:102060008C498978401A4FF47A7148438949496804
:1020700090FBF1F42046FEF701FA8649487A00F019
:1020800025F98449887A00F059FA7F2081494870FF
:10209000012088707E4840783F2809D101207F497F
:1020A0000870FEF751FA3F207A4948700120887085
:1020B000774840781F2809D1002078490870FEF73A
:1020C0006BFA1F207349487001208870704840786F
:1020D0000F280AD16F49487001208870FEF76EFC06
:1020E000FEF746FA01206E490870694840780328D7
:1020F00005D16849487001208870FEF773FA2620E0
:1021000064490870252000E012E008725F480178F9
:102110006048FEF771FF0C2200215E4800F0CCF809
:10212000802200215A4800F0C7F800205749087063
:102130005B48007801287DD100BF80F3108800BF84
:10214000FEF77BF957490870002080F3108800BF24
:102150005248007800284BD10846007800F004006F
:1021600004283AD00846007800F0020000283FD04A
:1021700026204D490870252008720720487001204C
:102180008870FEF76EF949490860FEF75DF9484925
:1021900008604648008800B2434988804448008867
:1021A00000B2C88043480068401C424908600846A5
:1021B00000883D494881552048723E4800683649AC
:1021C0000968884202D1AA20374948720C21364852
:1021D000FEF712FFFEF7E0F90AE03248007800F05F
:1021E0000400042804D10020324908602C490870FA
:1021F0002A480078012847D12A48007800F00200D8
:10220000A8B32620284908702520087207204870A6
:1022100001208870FEF725F924490860FEF714F9BB
:10222000234908602148008800B21F49888020485F
:10223000008800E028E000B2C8801E480068401C0A
:102240001C49086008460088174948815520487293
:102250001848006810490968884202D1AA2012492A
:1022600048720C211048FEF7C7FEFEF76DF91148C1
:10227000006809490968884206D1FEF78DF90020F7
:10228000074908700B490860B8E60000000000200C
:10229000C80000207000002004000020080000207A
:1022A000090000200A0000207C0000200C00002013
:1022B000100000201400002010B501E000F8011B00
:1022C000131EA2F10102F9D110BD000010B50446A1
:1022D000082C29D2DFE804F004294E7398BDE2FDF2
:1022E00001219548FEF7FDFA02219348FEF7F7FA1F
:1022F00008219148FEF7F3FA10218F48FEF7EFFA14
:102300004FF400718C48FEF7EAFA4FF480618A4876
:10231000FEF7E5FA4FF400618748FEF7E0FA4FF464
:1023200080718548FEF7DBFA04E101218248FEF75F
:10233000D6FA02218048FEF7D4FA08217E48FEF73B
:10234000CEFA10217C48FEF7CAFA4FF400717A48A1
:10235000FEF7C5FA4FF480617748FEF7C0FA4FF4F4
:1023600000617548FEF7BBFA4FF480717248FEF7C2
:10237000B6FADFE001217048FEF7B1FA02216E489B
:10238000FEF7ADFA08216C48FEF7ABFA10216A4857
:10239000FEF7A5FA4FF400716748FEF7A0FA4FF474
:1023A00080616548FEF79BFA4FF400616248FEF7D2
:1023B00096FA4FF480716048FEF791FABAE0012175
:1023C0005D48FEF78CFA02215B48FEF788FA082187
:1023D0005948FEF784FA10215748FEF782FA4FF465
:1023E00000715548FEF77BFA4FF480615248FEF7C2
:1023F00076FA4FF400615048FEF771FA4FF480719D
:102400004D48FEF76CFA95E001214B48FEF767FA5C
:1024100002214948FEF763FA08214748FEF75FFAB0
:1024200010214548FEF75BFA4FF400714248FEF771
:1024300058FA4FF480614048FEF751FA4FF40061BA
:102440003D48FEF74CFA4FF480713B48FEF747FADF
:1024500070E001213848FEF742FA02213648FEF7C3
:102460003EFA08213448FEF73AFA10213248FEF7C6
:1024700036FA4FF400713048FEF731FA4FF48061BC
:102480002D48FEF72EFA4FF400612B48FEF727FA8D
:102490004FF480712848FEF722FA4BE001212648CC
:1024A000FEF71DFA02212448FEF719FA08212248F6
:1024B000FEF715FA10212048FEF711FA4FF40071CB
:1024C0001D48FEF70CFA4FF480611B48FEF707FA2F
:1024D00000E00AE04FF400611748FEF702FA4FF4FB
:1024E00080711548FEF7FBF924E001211248FEF740
:1024F000F6F902211048FEF7F2F908210E48FEF71E
:10250000EEF910210C48FEF7EAF94FF400710A4881
:10251000FEF7E5F94FF480610748FEF7E0F94FF464
:1025200000610548FEF7DBF94FF480710248FEF7C1
:10253000D8F900BF00BF10BD000C014010B5044623
:10254000082C28D2DFE804F004284C7094B8DCFE94
:1025500008219148FEF7C5F910218F48FEF7BFF911
:1025600020218D48FEF7BBF940218B48FEF7B7F9D3
:1025700080218948FEF7B3F94FF400618648FEF7E1
:10258000AEF94FF480518448FEF7A9F94FF40041A9
:102590008148FEF7A4F9FDE008217F48FEF79FF986
:1025A00010217D48FEF79DF920217B48FEF797F921
:1025B00040217948FEF793F980217748FEF78FF99B
:1025C0004FF400617448FEF78AF94FF48051724865
:1025D000FEF785F94FF400416F48FEF780F9D9E026
:1025E00008216D48FEF77BF910216B48FEF777F95B
:1025F00020216948FEF775F940216748FEF76FF919
:1026000080216548FEF76BF94FF400616248FEF7E0
:1026100066F94FF480516048FEF761F94FF40041CC
:102620005D48FEF75CF9B5E008215B48FEF757F915
:1026300010215948FEF753F920215748FEF74FF96A
:1026400040215548FEF74DF980215348FEF747F9E0
:102650004FF400615048FEF742F94FF480514E4864
:10266000FEF73DF94FF400414B48FEF738F991E091
:1026700008214948FEF733F910214748FEF72FF9A2
:1026800020214548FEF72BF940214348FEF727F962
:1026900080214148FEF725F94FF400613E48FEF7DE
:1026A0001EF94FF480513C48FEF719F94FF40041F0
:1026B0003948FEF714F96DE008213748FEF70FF9A5
:1026C00010213548FEF70BF920213348FEF707F9B2
:1026D00040213148FEF703F980212F48FEF7FFF82B
:1026E0004FF400612C48FEF7FCF84FF480512A4863
:1026F000FEF7F5F84FF400412748FEF7F0F849E0FF
:1027000008212548FEF7EBF810212348FEF7E7F8EB
:1027100020212148FEF7E3F840211F48FEF7DFF8AB
:1027200080211D48FEF7DBF84FF400611A48FEF7E0
:10273000D6F84FF480511848FEF7D3F84FF4004113
:10274000154800E002E0FEF7CAF823E0082112482D
:10275000FEF7C5F810211048FEF7C1F820210E48F9
:10276000FEF7BDF840210C48FEF7B9F880210A4871
:10277000FEF7B5F84FF400610748FEF7B0F84FF4E4
:1027800080510548FEF7ABF84FF400410248FEF7D0
:10279000A8F800BF00BF10BD000801406C0680070C
:1027A0000008FF09FC09F909F6090708090A0B0CDA
:1027B00000010203040506070809313233343536B7
:1027C000373839304142434445464748494A4B002F
:1027D000F02700080000002070000000961A000892
:1027E0006028000870000020900F0000A61A000862
:1027F00000000000000000000000000000000000D9
:1028000000000000000000000000000000000000C8
:1028100000000000000000000000000000000000B8
:1028200000000000000000000000000000000000A8
:102830000000000000000000000102030401020388
:1028400004060708090204060800000000A24A0462
:102850000000000000000000010203040607080950
:0400000508000131BD
:00000001FF
