:020000040800F2
:1000000000100020450100084D0100084F010008C4
:1000100051010008530100085501000800000000CC
:100020000000000000000000000000005701000870
:1000300059010008000000005B010008FD160008DF
:100040005F0100085F0100085F0100085F01000810
:100050005F0100085F0100085F0100085F01000800
:10006000750600085F0100085F0100085F010008D5
:100070005F0100085F0100085F0100085F010008E0
:100080005F0100085F0100085F0100085F010008D0
:100090005F0100085F0100085F0100085F010008C0
:1000A0005F0100085F0100085F0100085F010008B0
:1000B000E91700085F0100085F0100085F01000800
:1000C0005F0100085F0100085F0100085F01000890
:1000D0005F010008A91A00085F0100085F0100081D
:1000E0005F0100085F0100085F0100085F01000870
:1000F0005F0100085F0100085F0100085F01000860
:100100005F0100085F0100085F0100085F0100084F
:100110005F0100085F0100085F0100085F0100083F
:100120005F0100085F0100085F0100085F0100082F
:10013000DFF80CD000F060F90048004725210008E6
:10014000001000200648804706480047FEE7FEE70B
:10015000FEE7FEE7FEE7FEE7FEE7FEE7FEE7FEE777
:1001600089170008310100082DE9FE4F81EA0304D8
:1001700004F0004421F0004100944FF0000B23F004
:10018000004350EA01045ED052EA03045BD0C3F39B
:100190000A54C1F30A552C44A4F2F3340194A0FB91
:1001A0000254C1F3130141F48011C3F3130343F468
:1001B000801301FB024400FB034E840A970A44EAC1
:1001C000815447EA8357A4FB076802958D0A05FB13
:1001D00007854FEA932C04FB0C542705029D4FEA38
:1001E000065847EA1637B5EB08056EEB070C870E85
:1001F000920E47EA811742EA8312A7FB0201B6EB8F
:100200000B0164EB00042B0D43EA0C335E1844EB46
:100210001C50DA465146E7FB0201C5F313044FEACE
:100220000B3343EA14534FEA0432019C43EA0603BA
:10023000A4F10C040294009CCDE900B400F08DF808
:1002400003B0BDE8F08F00200146F9E796230022B5
:10025000114600F045B8C1F30A5210B5C1F31301BD
:1002600040F2FF3341F480119A4201DA002010BDC0
:1002700040F233439A42A2F2334203DC524200F08E
:1002800016F810BD904010BD00F0004230F0004064
:100290000AD0C10D01F56071C0F3160042EA0151A8
:1002A000C208400711437047002001467047202ACA
:1002B00004DB203A21FA02F00021704721FA02F310
:1002C000D040C2F1200291400843194670470029EE
:1002D000A8BF7047401C490008BF20F001007047CC
:1002E00010B4B0FA80FC00FA0CF050EA010404BF2C
:1002F00010BC704749B1CCF1200421FA04F411FA82
:100300000CF118BF012121430843A3EB0C01CB1DC5
:100310004FEA00614FEA102042BF002010BC704736
:1003200000EBC35010440029A4BF10BC7047401C10
:10033000490008BF20F0010010BC704710B5141E22
:1003400073F1000408DA401C41F1000192185B418E
:100350001A4301D120F0010010BD2DE9F04D924665
:100360009B4611B1B1FA81F202E0B0FA80F220327C
:10037000904600F053F804460F4640EA0A0041EA6E
:100380000B0153465A46084313D0114653EA010065
:1003900019D0C8F140025046FFF789FF05460E46C6
:1003A00050465946424600F039F8084305D001202E
:1003B00004E020463946BDE8F08D0020054346EABA
:1003C000E0762C4337430A986305E40AA0EB080063
:1003D0000022FD0A44EA47540A3002D500200146B3
:1003E000E9E7010510196941DDE90845001969418E
:1003F000BDE8F04DA2E70000064C074D06E0E068BE
:1004000040F0010394E8070098471034AC42F6D35B
:10041000FFF792FE0429000824290008202A04DBA3
:10042000203A00FA02F1002070479140C2F1200307
:1004300020FA03F319439040704710B58F2000F065
:100440007FFA0446204610BD70B5962000F078FA79
:100450000446972000F074FA054645EA0426304623
:1004600070BD70B5942000F06BFA0446952000F042
:1004700067FA054645EA0426304670BD38B504469D
:100480002046FFF7E3FE0546694600F017F99DF8A0
:100490000010852000F0D8FA9DF80110862000F0A9
:1004A000D3FA9DF80210872000F0CEFA38BD38B597
:1004B0000446200A8DF80000E0B28DF801009DF896
:1004C0000010882000F0C0FA9DF80110892000F08B
:1004D000BBFA38BD38B504462046FFF7B7FE0546DF
:1004E000694600F0EBF89DF80010822000F0ACFAAD
:1004F0009DF80110832000F0A7FA9DF802108420D7
:1005000000F0A2FA38BD00002DE9F04104460D4686
:1005100016461F46DDF8188044EA0500304338438C
:1005200040EA08000749086008460088C0F3072130
:10053000802000F089FA03480178812000F084FAD5
:10054000BDE8F0811C00002010B508480088C0F309
:100550000B0040F480400549086008460088C0F35D
:100560000721802000F070FA10BD00001C00002060
:1005700010B508480088C0F30B0040F4005005494E
:10058000086008460088C0F30721802000F05CFA6C
:1005900010BD00001C00002010B508480088C0F302
:1005A0000B0040F440500549086008460088C0F33D
:1005B0000721802000F048FA10BD00001C00002038
:1005C00010B5074800684FF6EF71084040F0100082
:1005D0000349086008460178812000F035FA10BD13
:1005E0001C00002010B508480088C0F30B0040F440
:1005F00030400549086008460088C0F30721802084
:1006000000F022FA10BD00001C00002010B50848C0
:100610000088C0F30B0040F480500549086008468C
:100620000088C0F30721802000F00EFA10BD000002
:100630001C0000202DE9F04105460E4617464FF4F8
:1006400080510B4800F04BF945F0800000F0E0FECF
:10065000002404E0305D00F0DBFE601CC4B2BC424C
:10066000F8DB4FF48051024800F03BF9BDE8F0811F
:10067000000C014010B5042000F00CF810B104206B
:1006800000F002F810BD000001490860704700004A
:1006900014040140014600200022074B1B6803EAB6
:1006A0000102054B14331B680B4013B10AB1012042
:1006B00000E0002070470000000401402DE9F047F1
:1006C00082460C465046FFF7DFFD0746084A094BB5
:1006D000FFF74AFD0546FFF7BEFD81464FEA194088
:1006E00020704FEA1920607084F80290BDE8F0870E
:1006F000B30669014C00404008B50121042000F018
:10070000ABFB0420ADF8000003208DF802000420AC
:100710008DF803006946024800F004F808BD0000A7
:10072000000801402DE9F041024600250026002086
:1007300000230024002791F803C00CF00F0591F866
:1007400003C00CF0100CBCF1000F03D091F802C0F4
:100750004CEA050591F800C0BCF1000F31D01468D7
:1007600000202BE04FF0010C0CFA00F3B1F800C0B0
:100770000CEA03069E4220D183004FF00F0C0CFAC6
:1007800003F7BC4305FA03FC4CEA040491F803C0E8
:10079000BCF1280F06D14FF0010C0CFA00FCC2F896
:1007A00014C00AE091F803C0BCF1480F05D14FF026
:1007B000010C0CFA00FCC2F810C0401C0828D1D370
:1007C0001460B1F800C0BCF1FF0F34DD54680020A4
:1007D0002EE000F1080C4FF0010808FA0CF3B1F814
:1007E00000C00CEA03069E4221D183004FF00F0C9B
:1007F0000CFA03F7BC4305FA03FC4CEA040491F835
:1008000003C0BCF1280F05D100F1080C08FA0CF860
:10081000C2F8148091F803C0BCF1480F07D100F171
:10082000080C4FF0010808FA0CF8C2F81080401CC0
:100830000828CED35460BDE8F0810000F0B50A4628
:10084000002300240021002500F00046B6F1004FEF
:1008500002D11D4EF16901E01B4E7168C0F30345E2
:1008600083B200F44016B6F5401F08D121F0706144
:10087000154E766826F07066134F7E6012E000F425
:100880008016B6F5801F06D1032606FA05F4A143AB
:1008900041F0706106E0460D360103FA06F6B143F9
:1008A00041F0706122B1460D360103FA06F631437C
:1008B00000F00046B6F1004F02D1034EF16101E0B5
:1008C000014E7160F0BD00000000014002460020B2
:1008D00093680B400BB1012000E00020704741619C
:1008E00070470161704721B1028842F48062028042
:1008F00004E002884FF6FF331A400280704770B55B
:1009000002460024002500230020958A138B1B0437
:1009100045EA030626F07F4404EA01068E4201D12F
:10092000012000E0002070BD21B1028842F00102E8
:10093000028004E002884FF6FE731A40028070477E
:1009400070B50446002500BF4FF400313A4800F06E
:1009500005F90028F8D10121374800F0E7F800BF79
:1009600036493548FFF7CBFF0028F9D034480178E5
:100970000022314800F0ACF900BF32492E48FFF7A1
:10098000BEFF0028F9D001212B48FFF7CDFFB02191
:10099000294800F0A6F900BF2A49891C2648FFF71C
:1009A000AEFF0028F8D02146234800F09AF900BF96
:1009B0002449891C2048FFF7A2FF0028F8D0012114
:1009C0001D4800F0BFF801211B4800F0AFF800BF40
:1009D0001A491948FFF793FF0028F9D01848017801
:1009E0000122154800F074F900BF1449491C12484F
:1009F000FFF785FF0028F8D001210F48FFF773FFAC
:100A000012E00E493F310C48FFF779FF60B10A4808
:100A100000F05AF9054600210748FFF764FF01215D
:100A2000054800F08FF800E0EBE700BF0121024825
:100A3000FFF759FF284670BD005400400100030035
:100A4000340000208200070070B504460D460121E5
:100A5000194800F06BF800BF18491748FFF74FFF1F
:100A60000028F9D0164801780022134800F030F928
:100A700000BF14491048FFF742FF0028F9D0214673
:100A80000D4800F02EF900BF0E49891C0A48FFF7F7
:100A900036FF0028F8D02946074800F022F900BFA9
:100AA0000849891C0448FFF72AFF0028F8D00121D3
:100AB000014800F047F870BD0054004001000300F9
:100AC000340000208200070010B500F009F800F0A3
:100AD000D9F81A200149088010BD00003400002018
:100AE00008B50121480500F097F90121082000F020
:100AF000B3F94020ADF8000003208DF802001C205F
:100B00008DF8030069460848FFF70CFE8020ADF819
:100B1000000003208DF802001C208DF803006946B8
:100B20000148FFF7FFFD08BD000C014021B102881C
:100B300042F48072028004E002884FF6FF631A409C
:100B40000280704721B1028842F40072028004E002
:100B500002884FF6FF531A40028070470CB50246D8
:100B6000002000230193009300920B0F019321F0CA
:100B70007F41019B1BB1009B1433009303E0090CE0
:100B8000009B18330093009B1B680B400BB10120A6
:100B900000E000200CBD00002DE9F04385B00446C4
:100BA0000D460026B1460427DFF8CC80A6884FF614
:100BB000C0700640684600F06FF9DDF808802F48E5
:100BC000B8FBF0F01FFA80F946EA0906A6802088F3
:100BD0004FF6FE7108402080002629492868884287
:100BE0000CD828684000B8FBF0F087B2042F00DA78
:100BF00004273E4309F10100208427E0E8884BF6F2
:100C0000FF71884206D1286800EB4000B8FBF0F085
:100C100087B209E0286800EBC00101EB0010B8FBC7
:100C2000F0F087B247F48047C7F30B0008B947F0EC
:100C3000010747F4004006434FF4967009FB00F0AB
:100C40004FF47A7190FBF1F0401C2084A683208839
:100C500040F00100208026884FF6F5300640A88835
:100C60006989084306432680A88929890843208189
:100C700005B0BDE8F083000000127A0040420F008A
:100C8000A08601001FB50020ADF804004BF6FF70F0
:100C9000ADF806007C20ADF808004FF48060ADF898
:100CA0000A000001ADF80C000548009069460548AF
:100CB000FFF772FF01210348FFF736FE1FBD00005A
:100CC000801A0600005400400146088AC0B27047EE
:100CD00012B141F0010102E04FF6FE7319400182AA
:100CE0007047018270471FB5002003464FF48072A1
:100CF000014600904FF43040FFF706FCFFF760FC20
:100D0000FFF784FC002003900EE00020029004E036
:100D1000002001900298401C02900298B0F57A7F62
:100D2000F6DB0398401C03900398B0F57A7FECDB68
:100D30001FBD000008B50121042000F08DF801203E
:100D4000ADF8000010208DF8030003208DF802009C
:100D500069460F48FFF7E6FC0120ADF80000694640
:100D60000B48FFF7DFFC0120ADF80000694608489A
:100D7000FFF7D8FC01210648FFF7B3FD0121044825
:100D8000FFF7AFFD01210248FFF7ABFD08BD0000F2
:100D90000008014070B5002100230F22C47804B37D
:100DA000154C246804F4E064C4F5E064210AC1F140
:100DB0000403CA40447804FA03F1847814402143C0
:100DC00009010E4C0678A155047804F01F05012492
:100DD000AC4005786D11AD0005F1E025C5F8004186
:100DE00009E0047804F01F050124AC40044D0678A6
:100DF000761145F8264070BD0CED00E000E400E0FF
:100E000080E100E002490143024A1160704700009E
:100E10000000FA050CED00E029B1064AD269024350
:100E2000044BDA6104E0034AD2698243014BDA6180
:100E3000704700000010024029B1064A12690243BF
:100E4000044B1A6104E0034A12698243014B1A61A0
:100E5000704700000010024029B1064A926902431F
:100E6000044B9A6104E0034A92698243014B9A6100
:100E7000704700000010024029B1064AD2680243C0
:100E8000044BDA6004E0034AD2688243014BDA6023
:100E9000704700000010024030B5002100220024FD
:100EA00000232D4D6D6805F00C0121B1042905D0FA
:100EB000082923D105E0294D056022E0274D056072
:100EC0001FE0254D6D6805F47012234D6D6805F423
:100ED0008034022505EB92421CB9214D5543056033
:100EE0000BE01D4D6D6805F400351DB11C4D5543DB
:100EF000056002E0194D5543056002E0174D05609D
:100F000000BF00BF144D6D6805F0F0010909154DD3
:100F10006B5C0568DD4045600F4D6D6805F4E06170
:100F2000090A104D6B5C4568DD4085600A4D6D68AF
:100F300005F46051C90A0B4D6B5C4568DD40C56026
:100F4000054D6D6805F44041890B074D6B5CC56824
:100F5000B5FBF3F5056130BD0010024000127A00C8
:100F600000093D00450000205500002008B5012182
:100F70000420FFF771FF01210820FFF76DFF4FF4F8
:100F80008070ADF8000003208DF8020010208DF86D
:100F9000030069460D48FFF7C5FB4FF48050ADF8DC
:100FA000000003208DF8020010208DF80300694630
:100FB0000748FFF7B7FB0420ADF800008DF80300E9
:100FC00069460248FFF7AEFB08BD0000000801407B
:100FD000000C014010B500F0B1F900F0ABF810BD05
:100FE00070B506464FF480714748FFF778FC6424DB
:100FF00004E00A2000F010FF601EC4B2002CF8D1FB
:101000004FF480714048FFF76CFCFA2404E00A209A
:1010100000F002FF601EC4B2002CF8D100F056F9B7
:10102000FA2404E0012000F0F7FE601EC4B2002C98
:10103000F8D100F073F8422000F006FA054600BF30
:1010400006E0324931F8140000F01CFA601CC4B20A
:10105000032CF6DB2E49088800F014FA40F60B301A
:1010600000F010FA40F6234000F00CFA29484078CE
:10107000062823D12849097A4FF4E85202EB0111DE
:1010800001F1090000F0FEF9224949784FF4F052CD
:1010900002EB0111C81C00F0F5F9312000F0D4F981
:1010A000054605F0F80545F0050505F5445000F046
:1010B000E9F943F20C7000F0E5F912E01649097AFB
:1010C0004FF4E85202EB011101F1080000F0DAF9E7
:1010D000104949784FF4F05202EB0111C81C00F09E
:1010E000D1F941F6FF7000F0CDF94FF4005000F057
:1010F000C9F942F20C1000F0C5F944F2011000F0F9
:10110000C1F900F0E9F870BD00080140D0280008DE
:10111000D6280008DE280008E428000810B54FF49F
:10112000C47000F0AFF910BD10B541F2FF2000F01F
:10113000A9F910BD10B50020FFF752FF44F6845006
:1011400000F0A0F942F2FF4000F09CF944F20100E7
:1011500000F098F941F23F1000F094F9FFF7E4FF36
:1011600042F2152000F08EF90F2000F06DF90446D0
:1011700004F5506000F086F940F20D1000F082F99D
:1011800010BD2DE9F041044600270020FFF728FF9D
:101190004FF47A7000F040FE44F6875000F072F988
:1011A0004FF4105000F06EF944F2410000F06AF97B
:1011B000FFF7BAFF41F2F71000F064F904F50850A8
:1011C00000F060F90E2000F03FF9064606F5506089
:1011D00000F058F90BE0222000F036F90546A54250
:1011E00000D105E0032F02DB0020BDE8F081F2E72B
:1011F00000BF2046F9E700002DE9F0410546002632
:1012000003E00020A855701CC6B2202EF9DB102088
:1012100000F01AF9074607F5506000F033F9012095
:1012200000F0FAFD0F484078062801D1152403E0AC
:10123000132000F009F90446012C04D1002000F02D
:1012400003F9287006E00848047022462946002069
:1012500000F0B8F8FFF768FF012000F0DDFD204640
:10126000BDE8F081DE2800082000002070B50546AA
:101270000C460026224629460020FFF7DBF940F203
:101280000B1000F0FFF809E0701C80B20646B0F5C4
:101290007A7F00DD08E0012000F09EFD04210A486D
:1012A000FFF714FB0028EFD000BF122000F0CCF8AD
:1012B000FFF73AFF00F010F8B6F57A7F01DD002065
:1012C00070BD2046FCE700000008014010B54FF457
:1012D000847000F0D7F810BD10B540F2091000F08E
:1012E000D1F810BD10B5002404210648FFF7EEFA2E
:1012F00028B10548FFF780FF044600F007F82046B4
:1013000010BD000000080140C800002010B5FFF724
:1013100011FF10BD70B506460C4600252046FFF7AC
:1013200030FF054621463046FFF7A0FF0546052061
:1013300000F052FDFFF7EAFF284670BD00B587B008
:101340001E4800F0C3F801210820FFF785FD0121A8
:101350008803FFF761FD4FF46040ADF804001820EA
:101360008DF8070003208DF8060001A91448FFF747
:10137000D9F90020ADF808004FF48270ADF80A00EA
:101380000020ADF80C00ADF80E00ADF810004FF4E1
:101390000070ADF812003820ADF814000020ADF850
:1013A00016000720ADF8180002A9044800F0C8F89C
:1013B0000121024800F07EF807B000BD003800406F
:1013C000000C01402DE9F04106460F461546012D5F
:1013D00001DCBDE8F0814FF480510C48FFF77FFA43
:1013E00006F07F0000F014F8002405E0FF2000F074
:1013F0000FF83855601CC4B2AC42F7DB4FF4805193
:101400000248FFF76EFA00BFE3E70000000C01405E
:1014100010B5044600BF02210A4800F083F80028F6
:10142000F9D02146074800F089F800BF012105489E
:1014300000F078F80028F9D0024800F07CF8C0B23B
:1014400010BD00000038004070B504464FF48051D4
:101450000848FFF744FA04F07F00FFF7D9FF00F0D7
:101460000BF805464FF480510248FFF73AFA284638
:1014700070BD0000000C014010B5FF20FFF7C8FF51
:1014800010BD000010B5044644F400444FF48051F0
:101490000748FFF724FA2012FFF7BAFFE0B2FFF780
:1014A000B7FF4FF480510248FFF71BFA10BD000050
:1014B000000C014021B1028842F04002028004E0A9
:1014C00002884FF6BF731A400280704710B5044679
:1014D0001148844208D101218014FFF7CDFC00217E
:1014E000A014FFF7C9FC16E00C48844208D1012182
:1014F0000014FFF7A1FC00212014FFF79DFC0AE077
:101500000748844207D10121C013FFF795FC002151
:10151000E013FFF791FC10BD00300140003800409F
:10152000003C00400246002013890B400BB1012013
:1015300000E000207047014688897047818170472C
:1015400010B50022028802F441520B884C882343D4
:101550008C882343CC8823430C8923434C89234321
:101560008C892343CC8923431A430280838B4FF217
:10157000FF74234083830B8A038210BD10B500F0F3
:1015800001F810BD0CB500200190009033480068B0
:1015900040F480303149086000BF3048006800F4F2
:1015A000003000900198401C0190009818B90198F3
:1015B000B0F5A06FF1D12948006800F4003010B1F7
:1015C0000120009001E0002000900098012843D104
:1015D0002348006840F01000214908600846006870
:1015E00020F0030008600846006840F00200086030
:1015F0001A484068194948600846406848600846EB
:10160000406840F4806048600846406820F47C10E0
:1016100048600846406840F4E810486008460068A2
:1016200040F08070086000BF0C48006800F0007057
:101630000028F9D00948406820F0030007494860B5
:101640000846406840F00200486000BF0348406818
:1016500000F00C000828F9D10CBD00000010024079
:101660000020024070B5002016E0002100EB40028F
:101670001E4B03EB8202516000EB400203EB82023F
:10168000916000EB400203EB8202517000EB4002DC
:1016900003F82210411CC8B20428E6DB144909688B
:1016A0004FF47A73B1FBF3F2511EB1F1807F00D396
:1016B0001BE0511E4FF0E023596159170F230029F9
:1016C00004DB1C07250E0B4C655406E01C07260E98
:1016D000094C01F00F052D1F665500BF00214FF08A
:1016E000E02399610721196100BF70BDD00B002074
:1016F0005C00002000E400E018ED00E010B500F010
:1017000001F810BD10B51B48006840B119480068C9
:10171000401E1849086010B90120174908700024BC
:1017200008E004EB4401154A02EB810000F009FCDB
:10173000601CC4B2042CF4DB11480068401C104942
:101740000860084600686FF00041884202D100201E
:101750000B49086000F0F4FB0A480078401CC0B256
:10176000084908700A2803DB0020087000F0D4FB49
:1017700010BD0000380000203C000020D00B0020ED
:10178000400000204400002010B51348006840F0DD
:1017900001001149086008464068104908400E4998
:1017A0004860084600680E4908400B490860084632
:1017B000006820F4802008600846406820F4FE009D
:1017C00048604FF41F008860FFF7D8FE4FF00060BC
:1017D0000449086010BD0000001002400000FFF83E
:1017E000FFFFF6FE08ED00E010B50221480700F00B
:1017F0005BF858B10221480700F044F800220221AA
:10180000480700F062F81B48006880470421080779
:1018100000F04AF858B10421080700F033F800221C
:101820000421080700F051F8134800688047082198
:10183000C80600F039F858B10821C80600F022F8AF
:1018400000220821C80600F040F80C4800688047D4
:101850001021880600F028F858B11021880600F001
:1018600011F800221021880600F02FF804480068C3
:10187000804710BD24000020280000202C000020FC
:1018800030000020CA430282704721B1028842F032
:101890000102028004E002884FF6FE731A400280C3
:1018A00070470146888C704730B5024600200023FF
:1018B0000024158A05EA0103958905EA010413B19C
:1018C0000CB1012000E0002030BD1AB183890B4328
:1018D000838102E083898B438381704781867047CF
:1018E0000187704781877047A0F84010704700005B
:1018F000002202881D4B98420ED01D4B98420BD0FF
:10190000B0F1804F08D01B4B984205D01A4B98423B
:1019100002D01A4B984204D14FF68F731A404B886D
:101920001A43174B984207D0164B984204D04FF6F3
:10193000FF431A40CB881A4302808B8883850B882B
:1019400003850A4B98420BD0094B984208D00E4BA6
:10195000984205D00D4B984202D00D4B984201D1D0
:101960000B7A03860123838270470000002C01401C
:10197000003401400004004000080040000C00401A
:1019800000100040001400400040014000440140AD
:101990000048014008B54FF4C060FFF733FA252036
:1019A0008DF8000000208DF8010002208DF8020063
:1019B00001208DF803006846FFF7ECF908BD10B56B
:1019C00000F050F800F004F8FFF7E4FF10BD00004D
:1019D00000B585B001210520FFF73EFA01218803FB
:1019E000FFF73AFA4FF40070ADF8100018208DF8A8
:1019F000130003208DF8120004A91848FEF792FE88
:101A00004FF48060ADF8100004208DF8130004A995
:101A10001248FEF787FE4FF4E13000900020ADF849
:101A20000400ADF80600ADF80800ADF80C000C207D
:101A3000ADF80A0069460A4800F0A2F8012240F217
:101A40002551074800F077F80121054800F03DF8DE
:101A50004021034800F030F805B000BD0008014007
:101A6000003801400B480C4908600C4848600C489D
:101A700088604FF480608881C88100200882488295
:101A8000C882088348838882C86108620548486222
:101A9000704700000038014048010020700100201C
:101AA00070050020B51C000810B5024800F00EF9C2
:101AB00010BD00004801002001F40072B2F5007F63
:101AC00000D100BFCA430280704721B1828942F42D
:101AD0000052828104E082894DF6FF731A408281B0
:101AE000704770B50246002400230025002040F610
:101AF0006A16B14200D100BFC1F3421501F01F03C5
:101B0000012606FA03F3012D02D19689334006E03F
:101B1000022D02D1168A334001E0968A33400C121E
:101B2000012606FA04F41688344013B10CB10120E2
:101B300000E0002070BDF0B503460024002600251B
:101B4000002040F66A17B94200D100BF1846C1F321
:101B5000421401F01F06012707FA06F5012C01D1F6
:101B60000C3004E0022C01D1103000E014301AB126
:101B700007682F43076002E00768AF430760F0BDC6
:101B80002DE9F04786B005460E460024A24600BF68
:101B9000A1460027B08900B100BF2F462C8A4CF621
:101BA000FF700440F08804432C82AC894EF6F31099
:101BB0000440B08831890843718908430443AC81EB
:101BC000AC8A4FF6FF400440B0890443AC8201A8C0
:101BD000FFF762F91F48874202D1DDF810A001E04B
:101BE000DDF80CA0A88900F4004040B10AEBCA005F
:101BF00000EB0A1031684900B0FBF1F807E00AEB8E
:101C0000CA0000EB0A1031688900B0FBF1F86420CB
:101C1000B8FBF0F004012009642101FB1089A889B8
:101C200000F4004040B1322000EBC900B0FBF1F0FD
:101C300000F00700044308E0322000EB09106421A3
:101C4000B0FBF1F000F00F0004432C8106B0BDE8BA
:101C5000F08700000038014001468888C0F3080082
:101C60007047C1F3080282807047000070B50446D7
:101C700000200D49087040F22F150C4A294601201A
:101C800000F06EF90A4890F8960096280ADA08489B
:101C900090F8961090F89600401C054A82F896003D
:101CA0001046445470BD000036000020C11C0008DE
:101CB0007009002010B504462046FFF7D7FF10BD7D
:101CC00001200149087070473600002070B50446B5
:101CD00040F225512068FFF704FFE0B12068FFF7CC
:101CE000BBFFC5B2E18AA0684554E08A401C80B2BF
:101CF000E082E189884201DB0020E082608BE1899B
:101D0000884202DA608B401C6083606A10B128460A
:101D1000616A884700BF40F227712068FFF7E1FE43
:101D200008B3A08A60B9002240F227712068FFF74B
:101D300002FF012240F226612068FFF7FCFE37E037
:101D4000638A6268D15C2068FFF78BFF608A401C61
:101D500080B26082A189884201DB00206082A08A73
:101D6000401EA08224E040F226612068FFF7B9FE01
:101D7000F0B1A08A50B9002240F226612068FFF736
:101D8000DAFE206AA0B1206A804711E0638A6268A7
:101D9000D15C2068FFF765FF608A401C80B26082DA
:101DA000A189884201DB00206082A08A401EA082B7
:101DB00070BD02E008C8121F08C1002AFAD170479E
:101DC0007047002001E001C1121F002AFBD17047BB
:101DD00080F310887047000010B5044604B910BDA8
:101DE000012C00D102240120FFF7F2FF0848046013
:101DF000002008490870FFF7EBFF04E00548007871
:101E0000012800D100E0F9E700BF00BFE7E70000CC
:101E1000380000203C000020F0B5034600224FF0BF
:101E2000E02675690F4E36680F4FB6FBF7F606FBD6
:101E300003F400BF4FF0E026B16910E04FF0E02658
:101E4000B06988420BD0884202D20E1A324402E0B6
:101E50002E1A0E4432440146A24200D300E0EDE7C0
:101E600000BFF0BD5C00002040420F007FB50121A3
:101E70000846FEF7D1FF1748006846081648B6FB2B
:101E8000F0F085B24FF6FF74ADF80840ADF804509D
:101E90000020ADF80A00ADF8060001A94FF080401F
:101EA000FFF726FD01218807FFF7EFFC4FF4C06024
:101EB000FEF7A8FF1C208DF8000001208DF801001E
:101EC00002208DF8020001208DF803006846FEF71D
:101ED00061FF7FBD5C00002040420F0010B54FF451
:101EE000C060FEF78FFFFEF725FFFFF7BBFBFFF794
:101EF000BDFFFFF764FDFFF739F8FFF76BF8FFF759
:101F000005FAFEF7F9FBFEF7DFFDFEF7ECFE00F049
:101F10008BF800F0CDF810BD07480068401C06495A
:101F20000860322807D1002008600448006880F06B
:101F30000100024908607047180000200C080140A9
:101F40007047416851B14168491E416031B9012172
:101F500041700178012901D181684160704700001A
:101F60002DE9F04104460F461546052F00D37F1F8B
:101F70004FF08040FFF795FC804608EB0706012CE8
:101F80000FD125480560B1B2A007FFF7A7FC0221D9
:101F90004807FFF777FC012202214807FFF795FC6D
:101FA00038E0022C0FD11D480560B1B26007FFF781
:101FB00097FC04210807FFF765FC012204210807AC
:101FC000FFF783FC26E0032C10D115480560B1B261
:101FD0004FF08040FFF786FC0821C806FFF752FC4F
:101FE00001220821C806FFF770FC13E0042C0FD172
:101FF0000C480560B1B22007FFF776FC1021880677
:10200000FFF740FC012210218806FFF75EFC01E08B
:10201000BDE8F08100BFFBE724000020280000207D
:102020002C0000203000002008B501210820FEF718
:1020300013FF01210846FEF70FFF01211A48FEF7A2
:10204000FDFB10208DF8030003208DF8020040F600
:102050001B70ADF8000069461448FEF763FB0121D0
:102060001248FEF73EFC02211048FEF738FC08211A
:102070000E48FEF734FC10210C48FEF730FC4FF4FC
:1020800080710A48FEF72BFC4FF400710748FEF7F9
:1020900026FC4FF480610548FEF721FC4FF40061F7
:1020A0000248FEF71CFC08BD00023000000C014095
:1020B00008B501210420FEF7CFFE10208DF80300A3
:1020C00003208DF8020049F6F800ADF800006946DB
:1020D0001348FEF727FB08211148FEF702FC1021E8
:1020E0000F48FEF7FCFB20210D48FEF7F8FB4021CE
:1020F0000B48FEF7F4FB80210948FEF7F0FB4FF494
:1021000000610748FEF7EBFB4FF480510448FEF7EF
:10211000E6FB4FF400410248FEF7E1FB08BD00007A
:1021200000080140FFF7DAFE0A20FFF755FE45E1FF
:10213000FFF7D8F8A24908700846007800287DDD2E
:10214000A0480078252879D19E48007A2628FAD11F
:102150009C484078EF2803D19B4948700120887043
:10216000984840787F282FD1974896490A6802609E
:102170004A6842608968816001468878FEF7AAF95A
:1021800091494868FEF793F98F4840688F49086085
:102190008D48C0788C498978401A4FF47A71484349
:1021A0008949496890FBF1F42046FEF767F98649B2
:1021B000487A00F025F98449887A00F059FA7F209E
:1021C00081494870012088707E4840783F2809D1B5
:1021D00001207F490870FEF7B7F93F207A4948701F
:1021E00001208870774840781F2809D1002078495D
:1021F0000870FEF7D1F91F207349487001208870DC
:10220000704840780F280AD16F49487001208870C3
:10221000FEF769FDFEF7ACF901206E4908706948C8
:102220004078032805D16849487001208870FEF77E
:10223000D9F9262064490870252000E012E00872D0
:102240005F4801786048FFF765F80C2200215E487E
:1022500000F0CCF8802200215A4800F0C7F8002096
:10226000574908705B48007801287DD100BF80F392
:10227000108800BFFEF7E1F857490870002080F38E
:10228000108800BF5248007800284BD108460078DB
:1022900000F0040004283AD00846007800F002005C
:1022A00000283FD026204D490870252008720720BD
:1022B000487001208870FEF7D4F849490860FEF79D
:1022C000C3F8484908604648008800B243498880FE
:1022D0004448008800B2C88043480068401C424916
:1022E0000860084600883D494881552048723E48AC
:1022F000006836490968884202D1AA2037494872E5
:102300000C213648FFF706F8FEF746F90AE0324896
:10231000007800F00400042804D10020324908604D
:102320002C4908702A480078012847D12A480078AB
:1023300000F00200A8B32620284908702520087262
:102340000720487001208870FEF78BF82449086048
:10235000FEF77AF8234908602148008800B21F4937
:1023600088802048008800E028E000B2C8801E482D
:102370000068401C1C4908600846008817494881CD
:10238000552048721848006810490968884202D1EF
:10239000AA20124948720C211048FEF7BBFFFEF735
:1023A000D3F81148006809490968884206D1FEF748
:1023B000F3F80020074908700B490860B8E60000F0
:1023C00000000020C8000020700000200400002051
:1023D00008000020090000200A0000207C000020E6
:1023E0000C000020100000201400002010B501E0B7
:1023F00000F8011B131EA2F10102F9D110BD00006B
:1024000010B50446082C29D2DFE804F004294E73E5
:1024100098BDE2FD01219548FEF763FA0221934839
:10242000FEF75DFA08219148FEF759FA10218F480E
:10243000FEF755FA4FF480718C48FEF750FA4FF4CE
:1024400000718A48FEF74BFA4FF480618748FEF727
:1024500046FA4FF400618548FEF741FA04E1012194
:102460008248FEF73CFA02218048FEF73AFA08213A
:102470007E48FEF734FA10217C48FEF730FA4FF41C
:1024800080717A48FEF72BFA4FF400717748FEF717
:1024900026FA4FF480617548FEF721FA4FF4006187
:1024A0007248FEF71CFADFE001217048FEF717FAC8
:1024B00002216E48FEF713FA08216C48FEF711FA64
:1024C00010216A48FEF70BFA4FF480716748FEF757
:1024D00006FA4FF400716548FEF701FA4FF4806187
:1024E0006248FEF7FCF94FF400616048FEF7F7F927
:1024F000BAE001215D48FEF7F2F902215B48FEF7E0
:10250000EEF908215948FEF7EAF910215748FEF77D
:10251000E8F94FF480715548FEF7E1F94FF4007186
:102520005248FEF7DCF94FF480615048FEF7D7F9C6
:102530004FF400614D48FEF7D2F995E001214B4878
:10254000FEF7CDF902214948FEF7C9F908214748AD
:10255000FEF7C5F910214548FEF7C1F94FF4807127
:102560004248FEF7BEF94FF400714048FEF7B7F954
:102570004FF480613D48FEF7B2F94FF400613B48EB
:10258000FEF7ADF970E001213848FEF7A8F9022105
:102590003648FEF7A4F908213448FEF7A0F91021C7
:1025A0003248FEF79CF94FF480713048FEF797F9F6
:1025B0004FF400712D48FEF794F94FF480612B48D9
:1025C000FEF78DF94FF400612848FEF788F94BE0DB
:1025D00001212648FEF783F902212448FEF77FF9FE
:1025E00008212248FEF77BF910212048FEF777F9F1
:1025F0004FF480711D48FEF772F94FF400711B48CB
:10260000FEF76DF900E00AE04FF480611748FEF72D
:1026100068F94FF400611548FEF761F924E00121E3
:102620001248FEF75CF902211048FEF758F908211C
:102630000E48FEF754F910210C48FEF750F94FF4FC
:1026400080710A48FEF74BF94FF400710748FEF716
:1026500046F94FF480610548FEF741F94FF40061F7
:102660000248FEF73EF900BF00BF10BD000C01405C
:1026700010B50446082C28D2DFE804F004284C707A
:1026800094B8DCFE08219148FEF72BF910218F4801
:10269000FEF725F920218D48FEF721F940218B48CE
:1026A000FEF71DF980218948FEF719F94FF4006102
:1026B0008648FEF714F94FF480518448FEF70FF96D
:1026C0004FF400418148FEF70AF9FDE008217F48F8
:1026D000FEF705F910217D48FEF703F920217B481C
:1026E000FEF7FDF840217948FEF7F9F88021774898
:1026F000FEF7F5F84FF400617448FEF7F0F84FF478
:1027000080517248FEF7EBF84FF400416F48FEF736
:10271000E6F8D9E008216D48FEF7E1F810216B4892
:10272000FEF7DDF820216948FEF7DBF84021674815
:10273000FEF7D5F880216548FEF7D1F84FF4006127
:102740006248FEF7CCF84FF480516048FEF7C7F8B6
:102750004FF400415D48FEF7C2F8B5E008215B4840
:10276000FEF7BDF810215948FEF7B9F82021574867
:10277000FEF7B5F840215548FEF7B3F880215348DD
:10278000FEF7ADF84FF400615048FEF7A8F84FF49B
:1027900080514E48FEF7A3F84FF400414B48FEF736
:1027A0009EF891E008214948FEF799F81021474822
:1027B000FEF795F820214548FEF791F8402143485F
:1027C000FEF78DF880214148FEF78BF84FF4006149
:1027D0003E48FEF784F84FF480513C48FEF77FF8FE
:1027E0004FF400413948FEF77AF86DE00821374888
:1027F000FEF775F810213548FEF771F820213348AF
:10280000FEF76DF840213148FEF769F880212F4826
:10281000FEF765F84FF400612C48FEF762F84FF4BC
:1028200080512A48FEF75BF84FF400412748FEF735
:1028300056F849E008212548FEF751F810212348B1
:10284000FEF74DF820212148FEF749F840211F48A6
:10285000FEF745F880211D48FEF741F84FF400616E
:102860001A48FEF73CF84FF480511848FEF739F843
:102870004FF40041154800E002E0FEF730F823E095
:1028800008211248FEF72BF810211048FEF727F810
:1028900020210E48FEF723F840210C48FEF71FF8D0
:1028A00080210A48FEF71BF84FF400610748FEF745
:1028B00016F84FF480510548FEF711F84FF4004127
:1028C0000248FEF70EF800BF00BF10BD000801402F
:1028D0006C0680070008FF09FC09F909F6090708DA
:1028E000090A0B0C0001020304050607080931322E
:1028F000333435363738393041424344454647480A
:10290000494A4B0024290008000000207000000004
:10291000B21D00089429000870000020900F0000EC
:10292000C21D0008000000000000000000000000C0
:102930000000000000000000000000000000000097
:102940000000000000000000000000000000000087
:102950000000000000000000000000000000000077
:102960000000000000000000000000000001020361
:102970000401020304060708090204060800000017
:1029800000A24A040000000000000000010203044D
:042990000607080925
:0400000508000131BD
:00000001FF
